:020000040000FA
:10000000680A2020D9000000DD000000DF000000A9
:1000100000000000000000000000000000000000E0
:10002000000000000000000000000000E1000000EF
:100030000000000000000000E30000003515000093
:10004000E7000000E7000000E7000000E700000014
:10005000E7000000E7000000E7000000E700000004
:1000600000000000E7000000E700000000000000C2
:1000700000000000E7000000E7000000E7000000CB
:10008000E7000000E7000000E7000000E7000000D4
:10009000E7000000E7000000000000000000000092
:1000A000E7000000E7000000000000000000000082
:1000B000E700000000000000E7000000E70000008B
:1000C0000448854600F0A8FC00F038F800480047D6
:1000D000692D0000680A202003480047FEE7FEE77C
:1000E000FEE7FEE7FEE7FEE7C100000030B50B4685
:1000F000014600202022012409E00D46D5409D4202
:1001000005D31D469540491B254695404019154687
:10011000521E002DF1DC30BDD2B201E00270401C55
:10012000491EFBD270470022F6E710B513460A4677
:1001300004461946FFF7F0FF204610BD70B5054C88
:10014000054D03E0206800198047241DAC42F9D119
:1001500070BD0000883B00008C3B0000F8B50246F3
:100160004A40D40F42004B0052085B089A4202D228
:100170000246084611464A0023D0C30D4A00DDB2AC
:10018000120EAD1A202D35DA49020126490AF6056C
:100190008A19002C00D0524220214F1B1146B94031
:1001A0002A411018C20D9A4221D0002C17D0012DDF
:1001B00008DCDA05801AD20F8019D207DBB200F012
:1001C00065FBF8BDDA05801A012340001B06C01844
:1001D00080185A428018CA0F1043490007E04908A6
:1001E000C2071143DA05801A80194008801800F010
:1001F00045FBF8BD61000122511A001BF7E70122FF
:10020000D2075140AAE70122D2075040A6E7024692
:1002100070B54A40D30FDB0740002DD04A002AD0EA
:10022000010E140E000212020919400A520A841823
:10023000E50104465443000A120A2E045043A4194F
:100240004219200CC543AA18120C0125AD03521CFB
:10025000521912047F39240400D0521C104301D4D7
:100260004000491EC2B20C06C0092018401C4008BC
:10027000802A02D003E0002070BD40084000002921
:1002800000DA0020184370BD70B502464A40D50F11
:1002900040004A00ED0740085208002814D0002A08
:1002A00012D0C40DD30D41020120C0055202490AEB
:1002B000520AE41A091812187D34914201D3641CC1
:1002C00000E04900002C01DA002070BD00239142BB
:1002D00001D3891A0343400849000028F7D10029B7
:1002E0000AD0914202D10121C90705E0914201D211
:1002F000012101E00121C943E005C018401900F0C7
:10030000BDFA70BDF0B507460846584087B0C00F2B
:10031000049048000E46590040084908BC1A88411C
:1003200005D2384631461E4617460B46024658004F
:10033000400810434CD0300D039040055900400D4B
:10034000490D0590401A0290402872DA18030121E5
:10035000000B09050843019004980092002805D07D
:100360000199524200208841009201900298402158
:100370000A1A0199009800F04DFA05460C466B46A2
:1003800007CB00F068FAC0197141039A0E0D0023E3
:10039000D71756401A467A40164344D0049A002A8A
:1003A0002DD0029A012A039A15DC1205C01A914138
:1003B00001263605001C7141D20F059ED20700931D
:1003C000019202962A46234600F0D2FA07B0F0BD09
:1003D00038463146FAE71605224A0F46B218C01AC7
:1003E000B74101210905001C4F4100187F4111460A
:1003F00018187941E20F10436D19644113E0E207C8
:100400006D0815436408C2071443039A01261205B8
:10041000C01A91413605001C7141CE074008304397
:100420004908C01851412A46234600F094FACDE706
:10043000FFE7049801224000C117121A00238B41E4
:1004400004983146C417381AA141EEE730B40124AC
:10045000E407634030BC55E730B40124E407614051
:1004600030BC4FE70000E0FFF0B51FB488B00B9937
:100470000998002448400999C00F4900490809918A
:10048000C0070B990090490049080B9109990898F9
:10049000A64608431CD00B990A98084318D009981F
:1004A00001244000420D4800410D09982405000335
:1004B000000B204309900B980003000B20430B9086
:1004C00050181C494018002201901446104605E0BF
:1004D000002001460DB0F0BD032801DA034600E01C
:1004E00003239C46C11A0AAE0AE05F0008ADED5B2B
:1004F0004F00F75B7D430027AA187C41491C5B1E17
:100500006145F2DD410004AB5A522104120C0A434A
:10051000240C401C0828DFDB0198029000997046EB
:1005200001910090059B049A0799069800F020FA23
:10053000D0E700000DFCFFFFF0B50C465C4085B035
:10054000E40FE40703944C00002664085900944625
:10055000490802460296224321D062460A431ED031
:100560006200570D4A000E032303550D0124024675
:100570002C492405781B1B0B360B401823432643BC
:10058000614600901C46501AB44103D30098401CA9
:10059000009002E0921800985B41002803DA0020E6
:1005A000014605B0F0BD0020012109050746864639
:1005B00011E064461D46141BB54106D36546521B27
:1005C000B341744607430C43A646CD07400849088B
:1005D000284392185B4105460D43EAD11046184363
:1005E00013D06046194650407140084306D060461B
:1005F000101AB34106D20122002306E00022012393
:10060000DB0702E00122D243531000987446010533
:10061000381C6141029C039D0019694100F09BF95F
:10062000BFE70000FD0300000122D207002800DB25
:10063000101A002900DB511A814201D801207047AD
:10064000002070470122D207002800DB101A002981
:1006500000DB511A814201D201207047002070470F
:100660000122D207002800DB101A002900DB511AF2
:10067000814201D301207047002070470122D20738
:10068000002800DB101A002900DB511A814201D931
:100690000120704700207047C217C10F504010B5AD
:1006A0004018CA079623002100F0F0F810BD10B5DD
:1006B00000229623114600F0E9F810BD0A4670B5F5
:1006C000C917D30F4A4048400025C11814466C4151
:1006D000DA0796232046002C03D0B62300F0D6F884
:1006E00070BD08460021F9E70EB5C217C10F504092
:1006F000CA0740180021054B0293019200910A4657
:100700000B4600F035F903B000BD000033040000D3
:10071000C20F410040020123400ADB05D207090E47
:10072000C0187F2901DA00207047962903DC962340
:10073000591AC84001E096398840002AF4D0404256
:100740007047410040020122400AD205090E80187C
:100750007F2901DA00207047962903DC9622511A7E
:10076000C8407047963988407047000070B5CD0F7B
:100770004A0009030123090B1B0519430B4BED0725
:100780000024520D9A4201DA002070BD074B343329
:100790009A4203DC9A1A00F04DF802E0044951181D
:1007A00088402C43F1D0404270BD0000FF030000A0
:1007B000CDFBFFFFC20FD207400040080BD0C10D98
:1007C0000723DB01C91840020905400A1143C2088A
:1007D000400711437047002001467047CB0FDB07ED
:1007E000490010B5490802460A4307D00A0D0724FC
:1007F0000903E401090B121B002A01DC002010BDD3
:10080000C900440F0C43C100E018D205801800F065
:1008100035F810BD10B5202A04DB0146203A91407E
:10082000002010BD914020239C1A0346E340194349
:10083000904010BD10B5202A04DB0846203AD04075
:10084000002110BD0B46D340D0402024A21A914075
:100850000843194610BD10B5202A06DBCB17084601
:10086000203A1041C1170B4306E00B461341D0401C
:100870002024A21A91400843194610BD002904DA29
:10088000401C490001D140084000704770B400246A
:10089000050C05D11024000402D1002921D0112417
:1008A000050E01D100020834050F01D10001241DFD
:1008B000850F01D18000A41C002801DB4000641CCE
:1008C000002908D020252E1B0D46F540A14000D060
:1008D00001212943084301061B1B000ADB1D02D529
:1008E000002070BC7047DB05181880180029F8DA62
:1008F000401C4900F5D170BC40084000704770B5FD
:10090000002801DC002070BD410040020126400AA1
:10091000F605090E8019CA0701D14000491E4D1085
:10092000002211463F353346CB409B18D4188442F1
:1009300001D8001B1A464000491C1729F3DD51005D
:10094000814202D20021C94300E00021E80580185D
:10095000FFF794FF70BD10B5002B08DA0024401C8F
:10096000614192185B411A4301D14008400010BD1B
:10097000F0B51FB482B005460C0003D0084602F063
:10098000F7FA02E002F0F4FA203002460090214625
:100990002846FFF73FFF049B059A04460F4618437D
:1009A0001143084314D0184610431BD0009840212F
:1009B0000A1A18460599FFF73DFF05460E46009AAC
:1009C00005990498FFF726FF084305D0012004E0AD
:1009D0002046394607B0F0BD0020C11705430E433D
:1009E0002C43374300990E986305401A7905E40AB1
:1009F00000220C43FD0A0A3002D500200146E9E737
:100A00000105101969410C9C0D9D00196941FFF702
:100A1000A2FFDFE700000000064C0125064E05E0BE
:100A2000E36807CC2B430C3C98471034B442F7D30F
:100A3000FFF74AFB683B0000883B0000420005D0FE
:100A40004200120E52428A4201DB00207047C90563
:100A500008187047B0B50A78032313400B4A84582E
:100A60000B4D2540EB18A92424061B19835007229F
:100A700012064B6813401124240205599543EA18C5
:100A800002514978164A8150B0BDC046080800009E
:100A9000FCFFFF00811E091F00BFFCD27047000051
:100AA00070B50B01C31854689568254394892C438D
:100AB000156956692543D48924012C433501254302
:100AC000092464021D51137852781A43BF231A4037
:100AD00089004018024944589C43A218425070BDF6
:100AE00010110000F0B58A794B880C8911252D0270
:100AF00046590B4F37401C4314430A4A2240D2192F
:100B000042510A78CB798988E94C05595D26B600AF
:100B1000B54319431143314049190151F0BDC04655
:100B200080CCFFFF7F3300000A78034BC2500122C4
:100B3000120349788150704704100000F0B584B06A
:100B4000012422022A4B19680392914319604949F2
:100B50000D686D04FCD5457E25409E69A643741939
:100B60009C612024045D03252C40DE69AE433419CA
:100B7000DC61204C256805262660466A37681F62BE
:100B800076685E6207262E402660C4697F252D02A6
:100B9000DE69AE436406640C3419DC61027E0292A5
:100BA000076844688668C5680269009240690190D8
:100BB0009A69114810403A07120B2403A4B2A218F4
:100BC0002A433407240D1443009A1443019A144312
:100BD000029A1443094A2240101898611868039A2F
:100BE0001043186008688005FCD504B0F0BDC0460D
:100BF00008010B40001340408D00F0FF72FF0F0012
:100C0000F0B5124B1D46083D2E680124A6432E6008
:100C10000326360330401F68B74338181860186839
:100C2000FF26B043C9B240181860286820432860E6
:100C300018682107002A06D0084318600D4801688B
:100C4000C905FCD5F0BD88431860F0BD10010B400C
:100C500007498860074802689202FCD50122120405
:100C60000B6813430B600168C906FCD57047C0468A
:100C700004010B4004020B4070B582B00B794A7935
:100C8000002A2DD0202B04D00522D201002B03D026
:100C900003E0554A002B00D18822174C0559514ECC
:100CA0003540AD180551154C05593540AA1802516B
:100CB000134A84584F4D2C408450124A84582C407B
:100CC0008450114A00248450104A8450104A845899
:100CD0008F25ED432C4084500E4A84582C4084507C
:100CE0000C686A461371009489795171114600F0BD
:100CF00013F802B070BDC046781800007C180000E0
:100D0000381800003C180000581800005C1800005B
:100D1000881800008C180000F0B52F4A84180B7951
:100D2000202B0ED0002B20D10D686D1E2B4E85512F
:100D30002B4E87592B4D2F4088378751703488268A
:100D400020E00D686D1E254E8551254D4659254FD5
:100D50003E40254AB6184651244D46593E40B218E9
:100D6000425101225607224D0CE00A6852081B4DE1
:100D700042511B4A87581B4D2F400526F601BF19CB
:100D80008750703422682A4032432260244A8458B3
:100D9000184D2C408450184A84582C408450264AC0
:100DA00000248450154A84503122D20184588F2562
:100DB000ED432C408450124A84582C408450497989
:100DC0001943BD220A4004490C4641580D4B0B40C3
:100DD0009918891C0151F0BD041800000818000082
:100DE0007018000024493E0001040000741800003F
:100DF000FFFFFFCF8888FDFF341800005418000063
:100E0000841800004000FFCF10B507239B04194051
:100E100092008018024A84589C436118815010BD8A
:100E20003018000010B5029CA400001911431943AA
:100E3000014A815010BDC046501800009200801831
:100E4000014A81507047C046101800000A781D4BB7
:100E5000C250012212034B7883508978014A815095
:100E60007047C0460C110000F0B5112212028358E1
:100E70000124A34383508B888C780D8886580A4FB1
:100E8000374025431D43094B2B40DB1983500A7A19
:100E9000CB798979064C05597E26B5431943114310
:100EA000314069180151F0BDE798FDFF1867000057
:100EB000041100000A78034BC25001221203497842
:100EC000815070470810000010B5084BC018002A68
:100ED00008D000230468E406FCD4CC5C04635B1CEB
:100EE0009342F7D10168C906FCD410BD101100006F
:100EF000B0B51F481F49FFF7ADFD1F4A101F01681D
:100F00001E4B0B401E495918016010681D490140D5
:100F10001160012001061C4B1960030411460839B9
:100F20000C681C430C600223D360030214681C434A
:100F300014601F24E4021568A543C4022C19146030
:100F4000124A146E1C431466114B1860136A202455
:100F500023431362136823431360FF2212020D4BD5
:100F60001C6894431C600A6802430A60B0BDC04616
:100F700000200040C032000008310040FEFFECFFBE
:100F800001000200F8FFE0E080310040283000401E
:100F90000024004004E400E010B50124A0070F493C
:100FA000FFF758FD1F2001040D4882688A43210481
:100FB000521882600B4A0423136002680A430260DD
:100FC000022141616102084A136A0B4313621368EC
:100FD0000B43136001682143016010BDC83200005B
:100FE00000110040841100402810004080B50348E3
:100FF0000021034AFFF754FD80BDC04600A04240D7
:10100000D032000080B5FFF7F1FF80BDF0B51E4A79
:101010000020506290621D4984258D6301242305C0
:101020001B480360956026071A4B1E608526566193
:10103000E7071F6015641027076015630225056028
:101040004E6064031C6082241460134C546083253A
:101050004D618D61CC630D608D60641CCC62812418
:10106000D4678C620C64CC650C668C660C65194682
:101070003039092212060A601A6001463039074ADF
:101080000A600260F0BDC046048042408880424051
:10109000D0320A40D0120A40820004000080440C82
:1010A00070B582B0114C12492046FFF7CFFE1149AE
:1010B0002046FFF731FE01256846056000262046E0
:1010C000314632463346FFF7ADFE204631462A46CA
:1010D000FFF79AFE084920462A46FFF7AFFE074869
:1010E00085600221016002B070BDC046004008402A
:1010F000E8320000EC320000C40900000051084052
:10110000F0B581B01B4C1C492046FFF79FFE1B49E0
:101110002046FFF7B1FD02276846076000252046FC
:1011200029462A462B46FFF77DFE204629463A46A9
:10113000FFF76AFE324E204631463A46FFF77EFE02
:10114000032768460760204629462A462B46FFF7B4
:1011500069FE204629463A46FFF756FE20463146AC
:101160003A46FFF76BFE0648012181600C210160C1
:1011700001B0F0BD00008640F4320000F8320000FB
:1011800000118640F0B581B01A4C1B492046FFF78C
:101190005DFE1A492046FFF76FFD00256846056091
:1011A000204629462A462B46FFF73CFE2046294684
:1011B0002A46FFF729FE124E204631462A46FFF7FF
:1011C0003DFE012768460760204629462A462B46F1
:1011D000FFF728FE204629463A46FFF715FE20462F
:1011E00031463A46FFF72AFE064887600321016030
:1011F00001B0F0BD00208640003300000433000041
:10120000881300000031864010B50D4C0D49204672
:10121000FFF78AFC0C492046FFF764FC0B48416845
:101220001D4A0A4009324260816812220A432D2178
:101230008A438260016801220A43026010BDC046F1
:10124000008046400C3300000E33000004914640FD
:1012500010B50D4C0D492046FFF766FC0C492046A1
:10126000FFF740FC0B4841680B4A0A4009324260D4
:10127000816812220A432D218A438260016801227B
:101280000A43026010BDC04600A04640183300006B
:101290001A33000004B1464000FCFFFF70B515484A
:1012A000002404600F200002134D296881430122AD
:1012B0005002081828600320C1432B1F1E680E40EF
:1012C0001E6069689143696011026A688A436A60B6
:1012D000000321462246FFF793FC0848FFF72EFC47
:1012E0002868102101432020814329602046FFF710
:1012F000AFFC70BD08030B4004010B402433000019
:10130000994808494160FF210906074A13688B4341
:1013100003218907591811600021816007210160AC
:101320007047C0467F38010020ED00E070B582B004
:101330001A4D1B492846FFF789FD1A492846FFF731
:10134000EBFC0124684604600026284631463246FC
:101350003346FFF767FD284631462246FFF754FD26
:1013600026023146403128462246FFF767FD0E48E7
:1013700084600E490A6B32430A630D4A14606202AC
:101380000B6813430B60FF2109020A4A13688B4361
:1013900013600221016002B070BDC04600008740AA
:1013A0004C33000050330000001187402810874064
:1013B0004404874014E400E010B5B64C19492046B7
:1013C000FFF778FD18492046FFF74EFD0320C103C3
:1013D000164802688A4302600169154A0A404121A1
:1013E00089005118016141691B220A4324218A4363
:1013F0004261426801210A4043688B439A18426067
:101400008A020C4B1C6814431C60FF2212060A4B14
:101410001C689443CA07A2181A6002680A43026053
:1014200010BDC046583300005A33000000911040F0
:101430000000FFFF289010400CE400E080B500F0B1
:101440002FF8FFF7E3FDFFF729FFFFF759FEFFF73E
:101450006DFFFFF797FEFFF723FEFFF7ADFFFFF7E6
:10146000F7FEFFF7D1FEFFF743FDFFF795FDFFF70E
:10147000C9FDFFF745FFB820054900220A54054978
:101480000A54242004490A5404490A5480BDC04621
:10149000B0052020F4042020940620206C06202093
:1014A000F0B581B01648174A4260174842601748A5
:1014B00042601748426017484260174E7260174FEB
:1014C0007A60174C6260174B5A6017494A60174898
:1014D0004260174A0A4D2A600B4D2A600B4D2A6064
:1014E0000B4D2A600B4D2A6032603A6022601A6010
:1014F0000A6002601020FFF7CDFA01B0F0BDC046CF
:1015000000080A40030000B100280A400008864095
:1015100000088740002886400048084000881040A6
:1015200000A84640008846400028004000080040CF
:101530000100002610B5012420040B490A688243EB
:101540000A600A490868401C08607D218900FEF78E
:10155000CDFD002902D001F095FC10BDA005044985
:10156000086001F08FFC10BD10E000E06009202051
:10157000B0320A4010B5002A0AD0064BC01800232A
:101580000468E407FCD1CC5C84615B1C9342F7D116
:1015900010BDC04608110000F0B583B00125280633
:1015A00069460860EB062E4C2E492F4A204600F073
:1015B000C1FF214610312D4E304600F0EDFE1434AF
:1015C0002B48214600F0E8FE2A4C69468C602A4FE1
:1015D00081C12A482A490322022301F091F8684672
:1015E000C0C00460274E2849002730463A462B46A3
:1015F00001F086F819200001244C27502120C0005A
:1016000027544120800027500A202060204821498B
:1016100000F0ACFC204DEF612F626F62AF626F6330
:10162000AF63EF632F646F64AF64EF6447481B4997
:1016300000F00EFC1A4869460C604860194F3846A5
:1016400031460E4A2B4600F05DFE1748394600F041
:10165000E3F91648394600F02FFA03B0F0BDC04652
:10166000640720200080464000000A402807202010
:10167000A0082020E8DC873C00408345B8082020F3
:101680000000864040072020002086402C002020BB
:10169000BC07202000801040BC06202000400840ED
:1016A0006666E63DC0012020980420208C0720209B
:1016B00070B51C4801680124214301602102426881
:1016C0000A434260184801780029FCD0174909688C
:1016D000174A1180002505701088FEF7E8FF1549AC
:1016E000FEF7D2FD1449FEF792FD144E30603068CB
:1016F0001349FEF7C3FF002805D130681149FEF7F2
:10170000A1FF002808D0104C2078012803D10F48F1
:1017100000F08CFB257070BD0B4804700B4800F086
:101720008DFB70BD00110040F00420208462554004
:10173000B80720200040EC44000040411800202061
:10174000000010410000E040200020202800202060
:10175000F0B583B00291019001208604204F3E61D4
:10176000204C1721002520462A4601F073FB3E60DD
:101770003E6115211A22204601F06CFB3E603E615D
:1017800016212046019A01F065FB3E603E61212151
:101790002046029A01F05EFB3E603E6114214C221D
:1017A000204601F057FB3E603E61A221204601F039
:1017B00017FB3E6040B2002804DA0EE040B26D1C18
:1017C00000280ADB022001F095F83E61A2212046A4
:1017D00001F006FB3E60FE2DF0D903B0F0BDC0461F
:1017E00090320A4000A04640F0B587B00746007925
:1017F000002800D1FCE03C4624343E4628363868B8
:10180000C16AB960056BFD600290006A3861786951
:10181000FEF7F5FC039420600446B8692946FEF7FC
:10182000EEFC05460496306001200190C007FE6A78
:1018300005903146FEF7E3FC069028463146FEF758
:101840000FFF00281CD128460699FEF7EDFE002860
:1018500016D120460699FEF7E7FE002810D1204653
:101860003146FEF7FDFE00280AD10020F8633864F7
:101870000299486388634C200199395407B0F0BD40
:101880003E46103638461C300290384620300190D3
:101890004C20214600243C54284601F0B7FBFEF7BB
:1018A00089FF544A544BFEF747FE544B0694224698
:1018B000FEF7DAFD05460C463068FEF77BFF024670
:1018C0000B4628462146019CFEF7C0FDFEF786FF29
:1018D000054620604A49FEF7B5FE002801D0494878
:1018E00006E049492846FEF79FFE002804D14748F4
:1018F0002946FEF733FC2060039800680146FEF796
:1019000086FC0546049800680146FEF780FC014607
:101910002846FEF723FC01F0BDFC0646029D286028
:1019200024683B492046FEF7A9FE002805D1394925
:101930002046FEF795FE002802D1059846402E600D
:10194000029638463C3003903846403004903E6B57
:1019500020463146FEF792FE054605983146FEF7D1
:101960004EFC002D0AD101462046FEF76BFE0028F2
:1019700004D1786B0299FEF74AFC0690069E039804
:101980000660B86B396802914969FEF740FC014670
:101990002046FEF73CFC0546049805607C6C30460A
:1019A0002146FEF76BFE002807D1059844403046DB
:1019B0002146FEF755FE002802D1039804600694E4
:1019C000BC6C28462146FEF759FE002801D0069837
:1019D00008E00598444028462146FEF741FE0028CD
:1019E000069802D104990C602546029948638D63DC
:1019F00007B0F0BD182D4454FB210940008066401B
:101A0000000034C30000B443000034430000B4C3FA
:101A10000000B4420000B4C210B54C22002383542D
:101A20002E4A084C43618361037101607F21C9051F
:101A3000C4620163044634340EC4036442648264A5
:101A400010BDC0460AD7A33BF0B581B0044600796B
:101A500000282FD0A068E1680968FEF7D0FB064691
:101A60002061A069256A2946FEF7D1FBE169FEF7EE
:101A7000CEFB074661693046FEF7C9FB0146384692
:101A8000FEF76CFB0746A062666A3146FEF7F6FD7C
:101A9000002808D10120C007464038463146FEF7ED
:101AA000DFFD002803D12046283006603746206835
:101AB0004563876301B0F0BD70B5084A084B094C17
:101AC000094D00260671016048318660C1600661DB
:101AD00045618461C3610262426270BDCDCCCC3D80
:101AE000000080BFCDCC0C3E6F12833A04490A68D7
:101AF000012313430B606321890040224252704747
:101B00000418874010B504460D4800682168FEF7A8
:101B1000EDFA002904D0412080002058401C0AE042
:101B200001204105074A11602121C90000226254A9
:101B300041218900625041218900605010BDC0469A
:101B40006009202000E100E0F0B591B0044600F00B
:101B500069FF002801D0022000E0032020700A2045
:101B600000F0C8FE2078032871D1201D0690204681
:101B70000830059020460C30049020461030039029
:101B80002046143002902046183001907D20C60077
:101B900000200D900E900F901090054607940C9029
:101BA000204600F061F8019800680B9002980068E8
:101BB0000A900398006809900498006808900598B6
:101BC0000468069807680120009000F093FE2846FC
:101BD0003946FEF7C3FA054610982146079CFEF7E2
:101BE000BDFA10900F980899FEF7B8FA0F900E986A
:101BF0000999FEF7B3FA0E900D980A99FEF7AEFA1E
:101C00000D900C980B99FEF7A9FA761EC7D1009992
:101C10002170104F3946FEF737FBE0640D983946C6
:101C2000FEF732FBA0640E983946FEF72DFB606488
:101C30000F983946FEF728FB206410983946FEF7C6
:101C400023FBE06328463946FEF71EFBA06311B074
:101C5000F0BDC04600007A4480B50178012901D169
:101C600000F002F880BD0000F0B585B0044600F039
:101C70004BFE00F071FE00F097FE6068676B39461E
:101C8000FEF7C5FA01907F20C0053946FEF7B7FA86
:101C9000054604905B48008800B2FEF7FDFC5A49F7
:101CA0000E6831460296FEF7EFFAA16BFEF7A7FA2F
:101CB00001462846FEF7ABFA01460198FEF74EFAB8
:101CC0006060A1683846FEF7A2FA05464F480088D2
:101CD00000B2FEF7E1FC3146FEF7D6FAE16BFEF703
:101CE0008EFA0146049E3046FEF791FA01462846D8
:101CF000FEF734FAA060E1683846FEF788FA054638
:101D00004348008800B2FEF7C7FC0299FEF7BCFA10
:101D1000216CFEF774FA01463046FEF778FA014668
:101D20002846FEF71BFAE06021693E4603973846D5
:101D3000FEF76DFA02903748008800B2FEF7ACFC5F
:101D400031494F683946FEF79FFA616CFEF757FA42
:101D50000146049D2846FEF75AFA01460298FEF70E
:101D6000FDF9206161693046FEF751FA06462A48BE
:101D7000008800B2FEF790FC3946FEF785FAA16CA8
:101D8000FEF73DFA01462846FEF741FA0146304685
:101D9000FEF7E4F96061A1690398FEF738FA054699
:101DA0001E48008800B2FEF777FC3946FEF76CFA51
:101DB000E16CFEF724FA01460498FEF728FA014682
:101DC0002846FEF7CBF9A0611548008800B2FEF75F
:101DD00063FC3946FEF758FAE0611248008800B209
:101DE000FEF75AFC3946FEF74FFA20620E4800888B
:101DF00000B2FEF751FC3946FEF746FA606205B0C4
:101E0000F0BDC0460C072020080020200E0720202F
:101E1000100720201207202014072020160720205A
:101E2000180720201A0720201C07202000680749D7
:101E3000425801239A4342507047C0460068034904
:101E400042580123134343507047C0460418000012
:101E500001607047F0B583B00446CA20205A0A28B2
:101E600069D1E088A58861882289344B1A80344B77
:101E70001E68761C1E604B191B18324E33809BB2B5
:101E80009E1A314F3E60022955D82E460643360B26
:101E900051D193424FD1CC22A1502C494018FEF78A
:101EA000FBFB1D2149060291FEF7B1F9FEF782FC0A
:101EB000274A284BFEF726FAFEF790FCFEF77AFC3D
:101EC000254A264BFEF7D0FA01900F46D426A0599A
:101ED000FEF770FCF64AF74BFEF7C6FA019A3B464E
:101EE000FEF7B4FAFEF77AFCA05118482818FEF75E
:101EF000D3FB0299FEF78BF9FEF75CFC144A154BF5
:101F0000FEF700FAFEF76AFCFEF754FCEA4AEB4BD8
:101F1000FEF7AAFA05460E46D027E059FEF74AFC1E
:101F2000E34AE44BFEF7A0FA2A463346FEF78EFA60
:101F3000FEF754FCE05103B0F0BDC046E804202099
:101F400098082020EA042020EC04202000F8FFFF5D
:101F5000EC51B81E85EBB1BF9A9999999999B93FFF
:101F600080B501210170FFF775FF80BDD6220023E7
:101F70008352D4228352D2228352D0228352CE2241
:101F80008352CC228352CA228352D82281500370BA
:101F900070470000F0B589B004468069FEF70AFC7E
:101FA000C34AC44BFEF760FA064604916168A26812
:101FB000069188680590039297683946FEF7CEF837
:101FC0003F210D062946FEF722F9FEF7F3FBBA4A38
:101FD000BA4BFEF749FA02460B4630460499FEF723
:101FE00091F9FEF7FBFBA061E069FEF7E3FBB04A65
:101FF000B04BFEF739FA04900E463846059927464D
:10200000FEF7FDF8044605952946FEF700F9FEF7B0
:10201000D1FBA94AA94BFEF727FA02460B460498C2
:102020003146FEF76FF9FEF7D9FBF86138780228E0
:102030000FD0012814D0002810D100200699087074
:102040000399087038627862B862F862386309B040
:10205000F0BD0220069908700399087009B0F0BD20
:1020600002947C6B0497BE6B20463146FEF776F8EF
:10207000934F3946FEF7CBF8054620463146FEF72A
:10208000BEF83946FEF7C3F806460021FEF7CCFA43
:10209000002801D18C4906E000213046FEF7E0FA25
:1020A000002804D187493046FEF758F8064600213B
:1020B0002846FEF7B9FA002801D1834906E000213D
:1020C0002846FEF7CDFA002804D17E492846FEF7BF
:1020D00045F805467D4F30463946FEF7CFFA0028D1
:1020E000384608D17A4C30462146FEF7B9FA002826
:1020F000304600D12046019028463946FEF7BEFA08
:10210000002808D1724C28462146FEF7A9FA00287B
:102110002F4600D1274602260698805FFEF7E4FA94
:102120006C4A6D4BFEF7A0F904460D460198FEF788
:1021300041FB614A694BFEF797F9FEF717FBFEF783
:10214000D3FA02460B4620462946FEF7DBF8FEF797
:102150000DFB06994880039CA05FFEF7C5FA5D4A17
:102160005D4BFEF781F906460D463846FEF722FB29
:10217000514A5A4BFEF778F9FEF7F8FAFEF7B4FA2F
:1021800002460B4630462946FEF7BCF8FEF7EEFA4B
:1021900060800120069908702070049F7969029878
:1021A000FEF772F8FEF706FB4D4A4E4BFEF7C4F9F8
:1021B00000264D4B3246FEF757F94C4B3246FEF7A0
:1021C000BBF904460D46786AFEF7F4FA02460B4660
:1021D00020462946FEF796F8FEF700FB7862F8687D
:1021E00080694349FEF750F80146B86AFDF7B6FF2B
:1021F000B8624049FEF748F83F49FEF708F805463F
:1022000038623E49FEF71EFA002811D00021284608
:10221000FEF726FA00281ED138492846FEF734F882
:10222000FEF776FA2D21C90041433548081808E029
:1022300032492846FEF728F8FEF76AFA2D21C90030
:102240004843FEF729FA01462846FDF7D8FF054620
:102250003846203005600896079607A908AA284640
:1022600000F060FA7868B96880688968FDF776FFE1
:102270000599FDF7CCFF044608982146FDF7C7FFF6
:102280001B4D2946FEF700F80146F86AFDF766FF88
:10229000F86207992046FDF7BAFF2946FDF7F4FFDB
:1022A0000146386BFDF75AFF386309B0F0BDC046F0
:1022B000CDCCCCCCCCCCEC3F9A9999999999B93F9B
:1022C00000D763470000CAC30000CA4300409C45D2
:1022D00000409CC5666666666666EE3F9999A93FB2
:1022E000182D4454FB2109400080664000408F4077
:1022F00000007A4400405D45000061450000B443A1
:1023000098FEFFFFF0B581B01F4616460D46044605
:1023100018302421FDF707FF442000212154A16437
:10232000E164216506480749E1632064079860611C
:1023300006982061201DE0C0204601B0F0BDC046D7
:102340000F506E3A5839B43DB0B503218B07816800
:102350000C68A20F06D102699A420DD9C3685B1CB2
:10236000C36009E002699C4206D901239B079A4297
:1023700002D2C3685B1EC360C3680C680025C560D9
:10238000A21AAD41EB1804681219026042685A4162
:10239000426009680161B0BD0022027502604260BE
:1023A0008160C26002617047F0B589B0044606A83A
:1023B0000490027007AE3170029605AF882003903A
:1023C000387003CC9522520100928150606801253B
:1023D00039462A46083CFEF777FDE06831462A4632
:1023E000FEF772FD03CC524A8150902201923A705E
:1023F000009E8151606839462A46083CFEF764FD1C
:10240000E06804992A46FEF75FFD60682168484A43
:10241000885003983870A0688851E06839462A4689
:10242000FEF752FDE06802992A46FEF74DFDA068CE
:1024300021683F4A8850019A3A708851E0683946CD
:102440002A46FEF741FDE06804992A46FEF73CFD66
:10245000A0682268364FD05108A920230B7063680A
:1024600093519051E0682A46FEF72EFD606821687E
:10247000C851A068C8510720206209B0F0BDC0460D
:10248000F0B587B0044606ADE82028706068216882
:1024900095225701C851A068C851E0680122294619
:1024A000FEF712FD60682168214BC850A268CA502F
:1024B00068262E70C851E06822461832042305931E
:1024C000314600F0A7FC03CC194A8150217C272219
:1024D0000492083CA154617E26220392A154A17E5D
:1024E00025220292A154E17E24220192A154616A24
:1024F00021612E70A168C151E06822461C3231462C
:10250000059B00F087FCA0682168094A8850207F5D
:1025100004996054607F03996054A07F02996054CD
:10252000E07F01996054606A606107B0F0BDC04609
:1025300090120000B0B5049C002505621CC001602B
:102540000C38B0BDF0B581B004460227C05F274EFD
:10255000B042314603DC2749884202DC24496180CD
:1025600008462178022912D001291ED000291AD14B
:1025700000206080A069227F1C4D2946FEF75EFC8A
:10258000A069627F2946FEF759FC01B0F0BD002525
:102590006580A069227F2946FEF750FCA069627F12
:1025A0002946FEF74BFC01B0F0BD227F0F4D0028FD
:1025B0000FDBA0692946FEF741FCE05FC11340181C
:1025C0004840301A81B2A069627FFEF737FC01B043
:1025D000F0BD801981B2A069FEF730FCA069627F6E
:1025E0002946FEF72BFC01B0F0BDC0468813000061
:1025F00078ECFFFF77ECFFFFF0B581B00446C268CE
:10260000056903CA20620027083A17605760FEF781
:1026100055F801460120C007FDF7F1FD2946FDF7F9
:1026200033FE2849FDF7F3FD06466168FDF796FD88
:102630000546606024493046FDF726FEFEF7BAF8ED
:10264000224A234BFDF710FF224B3A46FDF70CFFC1
:1026500006460F466069FEF7ADF802460B46304667
:102660003946FDF701FFFEF7B9F8A0602846154985
:10267000FDF7E8FF002811D000212846FDF7F0FF04
:1026800000281DD10F492846FDF7FEFDFEF740F852
:102690002D21C90041431048081809E0094928467E
:1026A000FDF7F2FDFEF734F801462D20C000484347
:1026B000241DFDF7F1FF01462846FDF7A0FD20602F
:1026C00001B0F0BD0000B44300003443182D445461
:1026D000FB21094000408F4098FEFFFF80690349BD
:1026E00042580123134343507047C046041800006A
:1026F00010B50446FFF780FF2046FFF723FF10BD0B
:1027000010B5002404628460446044800470437700
:102710000277816104994161039901610299C16065
:1027200010BD0000F0B589B00392059104906C498A
:10273000FDF76DFD04460120C00707908443204645
:10274000FDF7E6FFFDF7A8FF01462046FDF757FD20
:1027500011218906FDF75BFD0090FDF7F2FF0446AD
:102760008030C005400D5F4D2958089128184068F9
:102770000290FDF744FD06465B4F2740BC00281938
:10278000416806910798FDF73AFD2D592946FDF756
:1027900036FD5649FDF73BFD044630463146FDF710
:1027A000DDFC01462046FDF72AFD04463846FDF7CC
:1027B0007EFF01460098FDF722FD00902146FDF7BF
:1027C00026FD04464A493046FDF721FD06462F46C0
:1027D00028462946FDF7C2FC01460698FDF7BEFCD7
:1027E000424D2946FDF713FD01463046FDF7B6FC84
:1027F0002146FDF7B3FC0146009E3046FDF707FD7C
:102800000446384601972946FDF701FD014620465A
:10281000FDF7F5FC01463046FDF7F9FC0146089C42
:102820002046FDF79BFC0399086006983946FDF7A2
:10283000E6FC07462046029D2946FDF78FFC2B4902
:10284000FDF7E5FC044638463946FDF787FC0146AE
:102850002046FDF7D4FC014634463046FDF7D7FC50
:10286000064638462249FDF7D2FC0746089801463D
:10287000FDF774FC01462846FDF770FC1B4D294608
:10288000FDF7C5FC01463846FDF7B9FC3146FDF7BA
:1028900065FC014626462046FDF7B9FC044608982B
:1028A0002946FDF7B4FC2146FDF758FC01463046A9
:1028B000FDF7ADFC01460198FDF750FC0446079872
:1028C0002146FDF79CFC054600210498FDF7BAFE61
:1028D000002800D125460598056009B0F0BDC04626
:1028E000610B363B64330000FF010000DB0F493C05
:1028F00000004040034909680818814200D2FEE701
:102900007047C0466009202070B582B00120850460
:10291000E34E3561E348A8216C460623224600F0C9
:1029200079FA35602078617809020818074908802B
:10293000A078E178090208180549088020796179B2
:10294000090208180349088002B070BD0C07202056
:102950000E0720201007202070B582B001208504CA
:10296000CF4E3561CF48A2216C460623224600F0A7
:1029700051FA356020786178090208180749088003
:10298000A078E17809020818054908802079617962
:10299000090208180349088002B070BD1207202000
:1029A0001407202016072020F0B583B001218E04E3
:1029B000BB4F3E61BB4C4022204600F04BFA3E60CC
:1029C0003E61A221204600F00BFA3E60C0071AD0FB
:1029D0003E61822101AD062320462A4600F01AFA04
:1029E0003E6028786978090208180B490880A878A1
:1029F000E9780902081809490880287969790902E3
:102A00000818074908803E6101210022204600F095
:102A100021FA3E6003B0F0BD180720201A072020DD
:102A20001C072020F0B585B00A20FFF763FF0127BF
:102A3000BC04E94D2C619B4800263946324600F023
:102A400009FA2C602C61122196483A4600F002FAED
:102A50002C600220FFF74EFF2C6192480397394605
:102A6000324600F0F7F92C60FF2E00D90DE1DA486C
:102A7000054604618F218B4800F0B2F907462C60AF
:102A80000A20FFF737FF761C6B2FEDD1D24D2C615A
:102A90000D210322834E304600F0DCF92C602C61BE
:102AA00010213C22304600F0D5F92C607E4F7F4843
:102AB00038602C6111215C22304600F0CBF92C608B
:102AC0007B4878602C6112214422304600F0C2F924
:102AD0002C602C611321022202923046374600F00E
:102AE000B9F92C602C611421019100260496384616
:102AF000324600F0AFF92C602C6115213846324681
:102B000000F0A8F92C602C6116213846324600F0FE
:102B1000A1F92C602C6118210127624E30463A46FB
:102B200000F098F92C602C6140223046039739461A
:102B300000F090F92C602C61802200923046019FB9
:102B4000394600F087F92C60029E3046FFF7D2FE2E
:102B50002C6154483946049F3A4600F07BF92C60BA
:102B60003046FFF7C7FE0A2528460099FEF7F0FD1C
:102B70003046FFF7BFFE28463946FEF7E9FD3046EE
:102B8000FFF7B8FEFF2F00D983E00497F34D2C61C7
:102B900015211B22434E304600F05CF92C602C615D
:102BA00016210D22304600F055F92C602C611721BA
:102BB000012730463A4600F04DF92C602C61142173
:102BC0004C22304600F046F92C602C61A2213046A0
:102BD00000F006F92C60C00710D100250220FFF795
:102BE00089FEDE4E3461A2212E4800F0F9F83460EF
:102BF000FE2D03D838406D1C0028EFD0049F7F1CA9
:102C0000D648064604618221264800F0E9F80546C8
:102C100034600A20FFF76EFEFF2DB3D10920192181
:102C2000FEF796FD2348204988600B20012104917E
:102C3000FEF78EFDC94D2C6115211B22194F384618
:102C400000F008F92C602C61162100263846324627
:102C500000F000F92C602C6117210622384600F0A4
:102C6000F9F82C602C6114276C220E48394600F0CC
:102C7000F1F82C602C610B480499324600F0EAF818
:102C80002C603846FFF736FE07E00B48039E0660CF
:102C900003E0094804210160039E304605B0F0BD01
:102CA00090320A4000A046400800202000108045D5
:102CB000CDCC644100803B4520072020F0B581B099
:102CC0002120C1009F4E705C002840D0224C009112
:102CD0002249022520462A46FEF74CFC311D0120E0
:102CE00002022046FEF746FC1D4920462A46FEF712
:102CF00041FC9B4F39462C31042620463246FEF7D4
:102D000039FC3946303120463246FEF733FC39462D
:102D1000203120463246FEF72DFC39464C31204604
:102D20003246FEF727FC2837204639463246FEF762
:102D300021FC20460A492A46FEF71CFC0949204688
:102D40002A46FEF717FC002000997E4A5054FEF7F1
:102D5000AFFC01B0F0BDC046008010401400202040
:102D600004002020DD082020FEF768FB00F004F8B6
:102D7000FFF7A4FFFCE7000070B501267005144CB6
:102D80002060F50313480560202020606748032178
:102D90000022FFF709FB6948FFF7A0FC6648FFF730
:102DA0009DFC6848FEF7A2FEB0056C4908600B4820
:102DB0000168022291430160102020607D20C00044
:102DC000FFF798FD6048FEF7BFFE256070BDC04666
:102DD00000E100E080E200E090320A4000B24240B0
:102DE0004522920181502649411883180A68D2066B
:102DF000FCD400221A600B68DB06FCD40B685B076E
:102E000005D4134A801802680B685B07FBD5D0B263
:102E10007047C046F0B54524A40101511849411836
:102E200004190D68ED06FCD4002B10D0084D401994
:102E300000252E4625600F68FF06FCD401E00768D8
:102E400097550F687F07FAD5761C9E42F2D1F0BDE8
:102E50003011000010B50A4BC3184524A401001915
:102E60001C68E406FCD401601968C906FCD4196822
:102E7000C906FCD402601868C006FCD410BDC04668
:102E800010110000B0B52948FFF7FAFA2848FFF7FB
:102E90005BFA2848FFF758FA2748FFF729FC27482C
:102EA000FFF726FC264C2046FFF75AF82548FEF788
:102EB00029FE2548FEF7D0FE2448017801290CD1CF
:102EC0000021017022480068224908602248FEF76C
:102ED000B5FF0120C006214908607D20C0001D4DBE
:102EE000296808181A490968814208D91A48FEF762
:102EF0009DFF0120C0061949086100202860184D77
:102F00002846FFF747F81748FEF76EFC1648FEF70D
:102F10009BFDCC202058002805D0022805D113485D
:102F2000A863012000E000202870B0BD64072020C5
:102F300028072020A008202040072020B8082020B3
:102F4000BC0720202C002020BC062020DC082020EC
:102F500060092020240020202800202090320A40F0
:102F6000C0012020980420208C0720200AD7A33CF1
:102F70002021020C01D010211046020A01D0104677
:102F80000839020901D01046091F820801D01046F5
:102F9000891E420801D0881E7047081A70474100F8
:102FA000080200D004200A0E01D001221043090EAD
:102FB000FF2901D102210843012800D105207047D3
:102FC00010B5FDF7CBF810BD5E2110B5C943080759
:102FD000FDF734FD10BD000002E008C8121F08C153
:102FE000002AFAD17047000070470000000000007E
:102FF000002001E001C1121F002AFBD17047000030
:10300000014908607047000000002020F0B50C4620
:1030100001461D224B00D2069F18E52605463606BE
:10302000620087B02046B7427BD21D27FF06D71922
:10303000B74276D24F0046003A0E330ED21A1B2A00
:1030400007DD002902DA804807B0F0BD7F4807B0ED
:10305000F0BD1A23DA422FDA002807DA002902DA53
:103060007B4807B0F0BD7B4807B0F0BD214628463D
:10307000FDF70AF90646FFF792FF042801D1FFF792
:10308000A3FF2846FFF78BFF05462046FFF787FF83
:1030900004463046FFF783FF042D01D0052D08D1EB
:1030A000042C01D0052C04D1002802D10220FFF706
:1030B000A7FF304607B0F0BDB74211D9002902DAA8
:1030C000654F664E01E0664F664E23462C461D4610
:1030D00001220346D20708465440504019460BE0EF
:1030E000002807DA002902DA5F4F604E04E0604FE3
:1030F000604E01E000263746421A012352001B06AB
:103100009A422FD248405C490CD5BF20000603905C
:103110003846FDF774F8074658493046FDF76FF812
:103120000BE053E03F20000603903846FDF716F809
:10313000074652493046FDF711F8064628460399DE
:10314000FDF765F82146FDF709F800902146039840
:10315000FDF75DF82946FDF756F80099FDF794F85C
:10316000044604E021462846FDF78EF80446014651
:10317000FDF74DF842490090FDF749F84149FCF749
:10318000EDFF0099FDF743F83F49FCF7E7FF009991
:10319000FDF73DF83D49FCF7E1FF0099FDF737F8F1
:1031A0003B49FCF7DBFF054620460099FDF72FF869
:1031B0002946FDF72CF83146FCF7D0FF2146FCF7F5
:1031C000CDFF3946FCF7CAFF07B0F0BDFF26360633
:1031D000B34201D8B24205D901462846FFF7F0FEB6
:1031E00007B0F0BD2F4607437F000AD0B3420CD191
:1031F000B2420AD101229207904391430D46044600
:1032000018E7FF22D2051043F9E7B34208D0460081
:1032100006D05340F4D4002A08DB9F26F60507E0C9
:10322000FF22D2051143E00FC00703E75F26F60532
:1032300031462846FCF7EBFF054631462046FCF7B1
:10324000E6FF04462946F5E6DB0FC9BFDB0FC93FA1
:10325000DB0F49C0DB0F49400000C9BF22AAFDB9FE
:103260000000C93F22AAFD39000049C022AA7DBA48
:103270000000494022AA7D3A0060ED3EC30ACE37E5
:103280002DAD65BD8FB8D53D0FB511BE61C84C3EA3
:10329000A8AAAABE70B50546FDF731FB4100044659
:1032A000FF204908C005411AC90F07D06900490825
:1032B000401AC00F02D10120FFF7A2FE204670BDC8
:1032C00001050000000000000105000000000000F2
:1032D00018000000000000000000000000010001D4
:1032E0000000000000000300080700008813000031
:1032F00020000000080000008813000020010000EA
:1033000008000000881300002001000008000400ED
:103310000000000007100000080004000003000087
:103320000710000001000000000000000000000085
:10333000000000000000000010000000000100007C
:1033400007000000010000002C00C441080000003C
:1033500080020000200000000800000018000000AB
:103360000030000000000000920E493CB10AC93C48
:103370002BC3163D2EFB483D752B7B3D04A9963D86
:1033800080B6AF3D36BDC83D2FBCE13D73B2FA3DBE
:1033900087CF093E8340163EB5AB223EA2102F3E9A
:1033A000CF6E3B3EC2C5473E0115543E135C603EA6
:1033B0007F9A6C3ECCCF783EC07D823E938E883E15
:1033C000229A8E3E32A0943E86A09A3EE59AA03E76
:1033D000128FA63ED47CAC3EEF63B23E2A44B83E88
:1033E000491DBE3E15EFC33E53B9C93ECA7BCF3E11
:1033F0004136D53E80E8DA3E4F92E03E7533E63EF8
:10340000BBCBEB3EEA5AF13ECBE0F63E275DFC3EFD
:10341000E4E7003F3D9C033F824B063F9BF5083F9E
:103420006B9A0B3FDA390E3FCDD3103F2A68133F1A
:10343000D9F6153FC07F183FC6021B3FD17F1D3F05
:10344000CBF61F3F9967223F25D2243F5636273FB0
:103450001594293F4AEB2B3FDE3B2E3FBB85303F87
:10346000C9C8323FF304353F233A373F4268393FFA
:103470003B8F3B3FF9AE3D3F67C73F3F70D8413F71
:1034800001E2433F03E4453F65DE473F12D1493F38
:10349000F8BB4B3F029F4D3F207A4F3F3D4D513F80
:1034A0004918533F31DB543FE595563F5348583F49
:1034B0006AF2593F1A945B3F532D5D3F05BE5E3F54
:1034C0002146603F97C5613F5A3C633F59AA643F1C
:1034D000880F663FD86B673F3CBF683FA7096A3FCC
:1034E0000C4B6B3F5E836C3F93B26D3F9ED86E3F3B
:1034F00073F56F3F0809713F5213723F4714733FD2
:10350000DD0B743F0BFA743FC6DE753F07BA763F9A
:10351000C58B773FF853783F9812793F9DC7793F25
:1035200002737A3FBE147B3FCDAC7B3F283B7C3F90
:10353000C9BF7C3FAC3A7D3FCCAB7D3F23137E3F80
:10354000B0707E3F6DC47E3F580E7F3F6D4E7F3F13
:10355000AB847F3F0FB17F3F97D37F3F43EC7F3FEB
:1035600011FB7F3F0000803F11FB7F3F43EC7F3F1B
:1035700097D37F3F0FB17F3FAB847F3F6D4E7F3F3F
:10358000580E7F3F6DC47E3FB0707E3F23137E3F59
:10359000CCAB7D3FAC3A7D3FC9BF7C3F283B7C3FF5
:1035A000CDAC7B3FBE147B3F02737A3F9DC7793F12
:1035B0009812793FF853783FC58B773F07BA763F2B
:1035C000C6DE753F0BFA743FDD0B743F4714733F43
:1035D0005213723F0809713F73F56F3F9ED86E3FDB
:1035E00093B26D3F5E836C3F0C4B6B3FA7096A3F04
:1035F0003CBF683FD86B673F880F663F59AA643F5E
:103600005A3C633F97C5613F2146603F05BE5E3F20
:10361000532D5D3F1A945B3F6AF2593F5348583F20
:10362000E595563F31DB543F4918533F3D4D513FDF
:10363000207A4F3F029F4D3FF8BB4B3F12D1493F8D
:1036400065DE473F03E4453F01E2433F70D8413F19
:1036500067C73F3FF9AE3D3F3B8F3B3F4268393F35
:10366000233A373FF304353FC9C8323FBB85303F6B
:10367000DE3B2E3F4AEB2B3F1594293F5636273F22
:1036800025D2243F9967223FCBF61F3FD17F1D3FB4
:10369000C6021B3FC07F183FD9F6153F2A68133F6B
:1036A000CDD3103FDA390E3F6B9A0B3F9BF5083FA5
:1036B000824B063F3D9C033FE4E7003F275DFC3E15
:1036C000CBE0F63EEA5AF13EBBCBEB3E7533E63E2D
:1036D0004F92E03E80E8DA3E4136D53ECA7BCF3E8F
:1036E00053B9C93E15EFC33E491DBE3E2A44B83EFC
:1036F000EF63B23ED47CAC3E128FA63EE59AA03E6C
:1037000086A09A3E32A0943E229A8E3E938E883EA8
:10371000C07D823ECCCF783E7F9A6C3E135C603E8B
:103720000115543EC2C5473ECF6E3B3EA2102F3E10
:10373000B5AB223E8340163E87CF093E73B2FA3DB9
:103740002FBCE13D36BDC83D80B6AF3D04A9963DD6
:10375000752B7B3D2EFB483D2BC3163DB10AC93C62
:10376000920E493C00000000920E49BCB10AC9BC4F
:103770002BC316BD2EFB48BD752B7BBD04A996BD82
:1037800080B6AFBD36BDC8BD2FBCE1BD73B2FABDBA
:1037900087CF09BE834016BEB5AB22BEA2102FBE96
:1037A000CF6E3BBEC2C547BE011554BE135C60BEA2
:1037B0007F9A6CBECCCF78BEC07D82BE938E88BE11
:1037C000229A8EBE32A094BE86A09ABEE59AA0BE72
:1037D000128FA6BED47CACBEEF63B2BE2A44B8BE84
:1037E000491DBEBE15EFC3BE53B9C9BECA7BCFBE0D
:1037F0004136D5BE80E8DABE4F92E0BE7533E6BEF4
:10380000BBCBEBBEEA5AF1BECBE0F6BE275DFCBEF9
:10381000E4E700BF3D9C03BF824B06BF9BF508BF9A
:103820006B9A0BBFDA390EBFCDD310BF2A6813BF16
:10383000D9F615BFC07F18BFC6021BBFD17F1DBF01
:10384000CBF61FBF996722BF25D224BF563627BFAC
:10385000159429BF4AEB2BBFDE3B2EBFBB8530BF83
:10386000C9C832BFF30435BF233A37BF426839BFF6
:103870003B8F3BBFF9AE3DBF67C73FBF70D841BF6D
:1038800001E243BF03E445BF65DE47BF12D149BF34
:10389000F8BB4BBF029F4DBF207A4FBF3D4D51BF7C
:1038A000491853BF31DB54BFE59556BF534858BF45
:1038B0006AF259BF1A945BBF532D5DBF05BE5EBF50
:1038C000214660BF97C561BF5A3C63BF59AA64BF18
:1038D000880F66BFD86B67BF3CBF68BFA7096ABFC8
:1038E0000C4B6BBF5E836CBF93B26DBF9ED86EBF37
:1038F00073F56FBF080971BF521372BF471473BFCE
:10390000DD0B74BF0BFA74BFC6DE75BF07BA76BF96
:10391000C58B77BFF85378BF981279BF9DC779BF21
:1039200002737ABFBE147BBFCDAC7BBF283B7CBF8C
:10393000C9BF7CBFAC3A7DBFCCAB7DBF23137EBF7C
:10394000B0707EBF6DC47EBF580E7FBF6D4E7FBF0F
:10395000AB847FBF0FB17FBF97D37FBF43EC7FBFE7
:1039600011FB7FBF000080BF11FB7FBF43EC7FBF17
:1039700097D37FBF0FB17FBFAB847FBF6D4E7FBF3B
:10398000580E7FBF6DC47EBFB0707EBF23137EBF55
:10399000CCAB7DBFAC3A7DBFC9BF7CBF283B7CBFF1
:1039A000CDAC7BBFBE147BBF02737ABF9DC779BF0E
:1039B000981279BFF85378BFC58B77BF07BA76BF27
:1039C000C6DE75BF0BFA74BFDD0B74BF471473BF3F
:1039D000521372BF080971BF73F56FBF9ED86EBFD7
:1039E00093B26DBF5E836CBF0C4B6BBFA7096ABF00
:1039F0003CBF68BFD86B67BF880F66BF59AA64BF5A
:103A00005A3C63BF97C561BF214660BF05BE5EBF1C
:103A1000532D5DBF1A945BBF6AF259BF534858BF1C
:103A2000E59556BF31DB54BF491853BF3D4D51BFDB
:103A3000207A4FBF029F4DBFF8BB4BBF12D149BF89
:103A400065DE47BF03E445BF01E243BF70D841BF15
:103A500067C73FBFF9AE3DBF3B8F3BBF426839BF31
:103A6000233A37BFF30435BFC9C832BFBB8530BF67
:103A7000DE3B2EBF4AEB2BBF159429BF563627BF1E
:103A800025D224BF996722BFCBF61FBFD17F1DBFB0
:103A9000C6021BBFC07F18BFD9F615BF2A6813BF67
:103AA000CDD310BFDA390EBF6B9A0BBF9BF508BFA1
:103AB000824B06BF3D9C03BFE4E700BF275DFCBE11
:103AC000CBE0F6BEEA5AF1BEBBCBEBBE7533E6BE29
:103AD0004F92E0BE80E8DABE4136D5BECA7BCFBE8B
:103AE00053B9C9BE15EFC3BE491DBEBE2A44B8BEF8
:103AF000EF63B2BED47CACBE128FA6BEE59AA0BE68
:103B000086A09ABE32A094BE229A8EBE938E88BEA4
:103B1000C07D82BECCCF78BE7F9A6CBE135C60BE87
:103B2000011554BEC2C547BECF6E3BBEA2102FBE0C
:103B3000B5AB22BE834016BE87CF09BE73B2FABDB5
:103B40002FBCE1BD36BDC8BD80B6AFBD04A996BDD2
:103B5000752B7BBD2EFB48BD2BC316BDB10AC9BC5E
:103B6000920E49BC00000080903B00000000202025
:103B700020000000D82F0000B03B000020002020D3
:103B8000480A0000F02F000011DAFFFF00000000DB
:103B900000000000FFFF000000108045CDCC644114
:103BA00000803B45FEFE0000000040410000000098
:04000005000000C136
:00000001FF
