:020000040000FA
:10000000200C2020D9000000DD000000DF000000EF
:1000100000000000000000000000000000000000E0
:10002000000000000000000000000000E1000000EF
:100030000000000000000000E30000005D2400005C
:10004000E7000000E7000000E7000000E700000014
:10005000E7000000550A0000E7000000E70000008C
:1000600000000000E7000000E700000000000000C2
:1000700000000000E7000000E7000000B9240000D5
:10008000E7000000E7000000E7000000E7000000D4
:10009000E7000000A92400000000000000000000AC
:1000A000E7000000E7000000000000000000000082
:1000B000E700000000000000E7000000E70000008B
:1000C0000448854600F0A8FC00F038F800480047D6
:1000D000E9420000200C202003480047FEE7FEE72D
:1000E000FEE7FEE7FEE7FEE7C100000030B50B4685
:1000F000014600202022012409E00D46D5409D4202
:1001000005D31D469540491B254695404019154687
:10011000521E002DF1DC30BD03460B439B0703D07C
:1001200009E008C9121F08C0042AFAD203E00B78BC
:100130000370401C491C521EF9D2704770B5054C23
:10014000054D03E0206800198047241DAC42F9D119
:1001500070BD0000A0500000A4500000F8B5024699
:100160004A40D40F42004B0052085B089A4202D228
:100170000246084611464A0023D0C30D4A00DDB2AC
:10018000120EAD1A202D35DA49020126490AF6056C
:100190008A19002C00D0524220214F1B1146B94031
:1001A0002A411018C20D9A4221D0002C17D0012DDF
:1001B00008DCDA05801AD20F8019D207DBB200F012
:1001C00065FBF8BDDA05801A012340001B06C01844
:1001D00080185A428018CA0F1043490007E04908A6
:1001E000C2071143DA05801A80194008801800F010
:1001F00045FBF8BD61000122511A001BF7E70122FF
:10020000D2075140AAE70122D2075040A6E7024692
:1002100070B54A40D30FDB0740002DD04A002AD0EA
:10022000010E140E000212020919400A520A841823
:10023000E50104465443000A120A2E045043A4194F
:100240004219200CC543AA18120C0125AD03521CFB
:10025000521912047F39240400D0521C104301D4D7
:100260004000491EC2B20C06C0092018401C4008BC
:10027000802A02D003E0002070BD40084000002921
:1002800000DA0020184370BD70B502464A40D50F11
:1002900040004A00ED0740085208002814D0002A08
:1002A00012D0C40DD30D41020120C0055202490AEB
:1002B000520AE41A091812187D34914201D3641CC1
:1002C00000E04900002C01DA002070BD00239142BB
:1002D00001D3891A0343400849000028F7D10029B7
:1002E0000AD0914202D10121C90705E0914201D211
:1002F000012101E00121C943E005C018401900F0C7
:10030000BDFA70BDF0B507460846584087B0C00F2B
:10031000049048000E46590040084908BC1A88411C
:1003200005D2384631461E4617460B46024658004F
:10033000400810434CD0300D039040055900400D4B
:10034000490D0590401A0290402872DA18030121E5
:10035000000B09050843019004980092002805D07D
:100360000199524200208841009201900298402158
:100370000A1A0199009800F04DFA05460C466B46A2
:1003800007CB00F068FAC0197141039A0E0D0023E3
:10039000D71756401A467A40164344D0049A002A8A
:1003A0002DD0029A012A039A15DC1205C01A914138
:1003B00001263605001C7141D20F059ED20700931D
:1003C000019202962A46234600F0D2FA07B0F0BD09
:1003D00038463146FAE71605224A0F46B218C01AC7
:1003E000B74101210905001C4F4100187F4111460A
:1003F00018187941E20F10436D19644113E0E207C8
:100400006D0815436408C2071443039A01261205B8
:10041000C01A91413605001C7141CE074008304397
:100420004908C01851412A46234600F094FACDE706
:10043000FFE7049801224000C117121A00238B41E4
:1004400004983146C417381AA141EEE730B40124AC
:10045000E407634030BC55E730B40124E407614051
:1004600030BC4FE70000E0FFF0B51FB488B00B9937
:100470000998002448400999C00F4900490809918A
:10048000C0070B990090490049080B9109990898F9
:10049000A64608431CD00B990A98084318D009981F
:1004A00001244000420D4800410D09982405000335
:1004B000000B204309900B980003000B20430B9086
:1004C00050181C494018002201901446104605E0BF
:1004D000002001460DB0F0BD032801DA034600E01C
:1004E00003239C46C11A0AAE0AE05F0008ADED5B2B
:1004F0004F00F75B7D430027AA187C41491C5B1E17
:100500006145F2DD410004AB5A522104120C0A434A
:10051000240C401C0828DFDB0198029000997046EB
:1005200001910090059B049A0799069800F020FA23
:10053000D0E700000DFCFFFFF0B50C465C4085B035
:10054000E40FE40703944C00002664085900944625
:10055000490802460296224321D062460A431ED031
:100560006200570D4A000E032303550D0124024675
:100570002C492405781B1B0B360B401823432643BC
:10058000614600901C46501AB44103D30098401CA9
:10059000009002E0921800985B41002803DA0020E6
:1005A000014605B0F0BD0020012109050746864639
:1005B00011E064461D46141BB54106D36546521B27
:1005C000B341744607430C43A646CD07400849088B
:1005D000284392185B4105460D43EAD11046184363
:1005E00013D06046194650407140084306D060461B
:1005F000101AB34106D20122002306E00022012393
:10060000DB0702E00122D243531000987446010533
:10061000381C6141029C039D0019694100F09BF95F
:10062000BFE70000FD0300000122D207002800DB25
:10063000101A002900DB511A814201D801207047AD
:10064000002070470122D207002800DB101A002981
:1006500000DB511A814201D201207047002070470F
:100660000122D207002800DB101A002900DB511AF2
:10067000814201D301207047002070470122D20738
:10068000002800DB101A002900DB511A814201D931
:100690000120704700207047C217C10F504010B5AD
:1006A0004018CA079623002100F0F0F810BD10B5DD
:1006B00000229623114600F0E9F810BD0A4670B5F5
:1006C000C917D30F4A4048400025C11814466C4151
:1006D000DA0796232046002C03D0B62300F0D6F884
:1006E00070BD08460021F9E70EB5C217C10F504092
:1006F000CA0740180021054B0293019200910A4657
:100700000B4600F035F903B000BD000033040000D3
:10071000C20F410040020123400ADB05D207090E47
:10072000C0187F2901DA00207047962903DC962340
:10073000591AC84001E096398840002AF4D0404256
:100740007047410040020122400AD205090E80187C
:100750007F2901DA00207047962903DC9622511A7E
:10076000C8407047963988407047000070B5CD0F7B
:100770004A0009030123090B1B0519430B4BED0725
:100780000024520D9A4201DA002070BD074B343329
:100790009A4203DC9A1A00F04DF802E0044951181D
:1007A00088402C43F1D0404270BD0000FF030000A0
:1007B000CDFBFFFFC20FD207400040080BD0C10D98
:1007C0000723DB01C91840020905400A1143C2088A
:1007D000400711437047002001467047CB0FDB07ED
:1007E000490010B5490802460A4307D00A0D0724FC
:1007F0000903E401090B121B002A01DC002010BDD3
:10080000C900440F0C43C100E018D205801800F065
:1008100035F810BD10B5202A04DB0146203A91407E
:10082000002010BD914020239C1A0346E340194349
:10083000904010BD10B5202A04DB0846203AD04075
:10084000002110BD0B46D340D0402024A21A914075
:100850000843194610BD10B5202A06DBCB17084601
:10086000203A1041C1170B4306E00B461341D0401C
:100870002024A21A91400843194610BD002904DA29
:10088000401C490001D140084000704770B400246A
:10089000050C05D11024000402D1002921D0112417
:1008A000050E01D100020834050F01D10001241DFD
:1008B000850F01D18000A41C002801DB4000641CCE
:1008C000002908D020252E1B0D46F540A14000D060
:1008D00001212943084301061B1B000ADB1D02D529
:1008E000002070BC7047DB05181880180029F8DA62
:1008F000401C4900F5D170BC40084000704770B5FD
:10090000002801DC002070BD410040020126400AA1
:10091000F605090E8019CA0701D14000491E4D1085
:10092000002211463F353346CB409B18D4188442F1
:1009300001D8001B1A464000491C1729F3DD51005D
:10094000814202D20021C94300E00021E80580185D
:10095000FFF794FF70BD10B5002B08DA0024401C8F
:10096000614192185B411A4301D14008400010BD1B
:10097000F0B51FB482B005460C0003D0084603F062
:1009800083FD02E003F080FD203002460090214606
:100990002846FFF73FFF049B059A04460F4618437D
:1009A0001143084314D0184610431BD0009840212F
:1009B0000A1A18460599FFF73DFF05460E46009AAC
:1009C00005990498FFF726FF084305D0012004E0AD
:1009D0002046394607B0F0BD0020C11705430E433D
:1009E0002C43374300990E986305401A7905E40AB1
:1009F00000220C43FD0A0A3002D500200146E9E737
:100A00000105101969410C9C0D9D00196941FFF702
:100A1000A2FFDFE700000000064C0125064E05E0BE
:100A2000E36807CC2B430C3C98471034B442F7D30F
:100A3000FFF74AFB80500000A0500000420005D0A4
:100A40004200120E52428A4201DB00207047C90563
:100A50000818704780B50E4801F014FF062814D11D
:100A6000FFE70C48002101F09FFE094801F0FCFE61
:100A700009482121C90001224254084802F01CFD06
:100A800007480168491C016000E0FFE780BDC046DF
:100A90000020004000A042401C022020B003202083
:100AA00008022020B0B584B00A46034603900291A4
:100AB00002980399034C0D5905430D51019200937F
:100AC00004B0B0BD48100000F0B58EB0179C169D64
:100AD000159E149F09901398089018460790104689
:100AE0000690084605900998049009980D900CA866
:100AF00001700B920A930B990A9A1143139A1143AE
:100B0000149A1143159A1143169A1143179A1143D7
:100B10000D9A0078800010182322D201815003948E
:100B20000295019600970EB0F0BD10B582B0014657
:100B3000019001981122120283580124234383500B
:100B4000009102B010BD000010B582B001460190C6
:100B500001987A4A83580124240223438350009148
:100B600002B010BDB0B584B00A46034603900291AE
:100B700002980399034C0D5905430D5101920093BE
:100B800004B0B0BD88100000B0B584B00A4603467A
:100B90000390029102980399034C0D5905430D519E
:100BA0000192009304B0B0BD2810000082B001464D
:100BB000019001980122D202024B8350009102B0B1
:100BC0007047C04601000026F0B58BB0119C109D07
:100BD0001E4617460690084605900698049006980B
:100BE0000A900991089207930A990C4A8818099962
:100BF000089A1143079A1143094A039402950196F2
:100C0000009700F079F90A984C4940181099119A08
:100C10001143044A00F070F90BB0F0BD041100005C
:100C20000100130007001F1F82B0014601900198C8
:100C3000024A034B8350009102B070470408000041
:100C4000030000B110B584B00A4603460390029138
:100C500003980F49401802990978A9242406091914
:100C60000C4C01922246009300F0A4F80398112145
:100C700009024018029949680722120600F09AF802
:100C8000029840780399F84A885004B010BDC046D5
:100C900008080000030000FF10B586B00A460346AE
:100CA000059004A801700599244C09190078C00228
:100CB0001F24E402039008460399029222460193FE
:100CC00000F01AF906B010BD10B584B00A4603460C
:100CD00003900291039811210902401802990124FE
:100CE000240401922246009300F006F904B010BDDE
:100CF00010B584B00A460346039002A8018000881C
:100D00000399034C08510192009304B010BDC046F2
:100D10001411000010B584B00A46034603900291F6
:100D200003980649401802991F2424040192224680
:100D3000009300F0E1F804B010BDC04608110000B7
:100D400010B584B00A460346039002A801700078EB
:100D50000F21084003990124A40208510192009335
:100D600004B010BDB0B586B013460C4605460590DC
:100D7000049103920598049908430399084306498E
:100D8000086002930194009506B0B0BD0248006867
:100D9000072108407047C0460013404083B0014619
:100DA00002900298821E121F00BFFCD20192009195
:100DB00003B07047B0B587B013460C4605460690A1
:100DC000059104920698006803900398049988435B
:100DD000039003980599049A114008430699086006
:100DE00002930194009507B0B0BDB0B587B013462B
:100DF0000C460546069005910492069800680390FB
:100E0000039804998843039003980599049A114024
:100E100008430699086002930194009507B0B0BD9D
:100E2000B0B587B013460C4605460690059104926E
:100E300006980068039003980499884303900398E8
:100E40000599049A11400843069908600293019499
:100E5000009507B0B0BDB0B587B013460C46054647
:100E600006900591049206980068039003980499EF
:100E70008843039003980599049A11400843069902
:100E8000086002930194009507B0B0BDB0B587B07B
:100E900013460C4605460690059104920698006894
:100EA0000390039804998843039003980599049A42
:100EB000114008430699086002930194009507B019
:100EC000B0BDB0B587B013460C46054606900591F7
:100ED000049206980068039003980499884303904D
:100EE00003980599049A11400843069908600293F3
:100EF0000194009507B0B0BDB0B587B013460C465D
:100F000005460690059104920698006803900398A0
:100F100004998843039003980599049A1140084363
:100F20000699086002930194009507B0B0BDF0B532
:100F30008DB0159C149D139E129F06901846059027
:100F400010460490084603900698029006980C906C
:100F50000BA801700A92099308A90F8007AA1680AE
:100F60000A9B099E3343159E36013343149E334337
:100F700012881201134309880B430C990078000171
:100F80000818092149024350019400950DB0F0BDA5
:100F9000B0B584B00A460346039002A801700399D5
:100FA0000078000108180921490244580225AC4381
:100FB00044500192009304B0B0BDF0B591B0134617
:100FC0000C46054610900FA801700E9210990278F9
:100FD0000E9E77680D90B0680C90B0890B90F089E8
:100FE0000A903069766909906846C660099E8660F5
:100FF0000A9E46600B9E0660084611463A460C9EC5
:101000000893334607940695FFF791FF10980D99C2
:1010100009780E9A1378527805921A46059B00F0CB
:1010200003F811B0F0BD0000F0B589B01C461546BC
:101030000E460746089007A8017006A90A7005AA7F
:101040001370089B007880001818074BC0180978A7
:1010500012781143BF220494039502960197FFF77B
:10106000C4FE09B0F0BDC0461011000010B584B038
:101070000A4603460390029102980399952464015D
:1010800008510192009304B010BD000010B584B067
:101090000A4603460390029102980399024C0851B4
:1010A0000192009304B010BDD012000082B001463E
:1010B000019001980122D2023C4B8350009102B072
:1010C0007047C04682B001460190019880001C4ADA
:1010D00081238350009102B07047C04682B0014620
:1010E000019001988000164A00238350009102B0BD
:1010F0007047C04610B584B00A460346039002917B
:10110000029805490843039989000D4C0851019242
:10111000009304B010BDC0468000040010B584B038
:101120000A460346039002910298802108430399DE
:101130008900034C08510192009304B010BDC046D1
:101140000480424082B0014601900198354A364BF6
:101150008350009102B0704710B584B00A46034630
:101160000390029102980399024C08510192009356
:1011700004B010BD9012000010B582B0014601907D
:101180000198224A8358012423438350009102B0DE
:1011900010BDC04682B00146019001980122D202E2
:1011A000024B8350009102B07047C04601000026F8
:1011B000B0B586B00A460346059004910598112102
:1011C0000902401804990C894D882C4389790C43F5
:1011D0000D4903912146039C029222460193FFF799
:1011E0001FFE05980949401804998A88CB791A434B
:1011F00009780A435D21890000911146009AFFF7A2
:101200000FFE06B0B0BDC0467F33000004110000E1
:1012100082B0014601900198024A034B835000912D
:1012200002B0704704080000030000B110B584B09C
:101230000A46034603900291039805494018029913
:10124000044C019222460093FFF756FE04B010BDF5
:1012500008110000FF03000010B584B00A460346E1
:1012600003900291029800780399064C0851029865
:10127000407803990124240308510192009304B09B
:1012800010BDC0460410000070B588B013460C466F
:101290000546079006A8017005A90A70079A094E2D
:1012A00092190078097808433F2104901046049A67
:1012B00003911146039A029301940095FFF71CFED7
:1012C00008B070BD0C11000080B586B001460590D5
:1012D000039100F083F8FFE700F098F801218903FB
:1012E0000840884201D0FFE7F6E70598417E2B4889
:1012F000012202900192FFF7E4FD05982021415C54
:10130000274803220090FFF7DCFDFFF73FFD049024
:10131000002104220198FFF725FD0598406A006826
:10132000204908600598406A40681F490860049891
:101330001E4908600598C0694006410C7F200202E2
:101340000098FFF7BEFD059801680907090B426880
:10135000120392B2891882681207120D8918C268A6
:1013600011430269114342691143007E0143104A4F
:101370000298FFF7A6FD52480168019A130219432B
:101380000160FFE700F042F801214902084088426D
:1013900001D0FFE7F6E706B080BDC04620010B4054
:1013A00024010B4028010B402C010B40001340404E
:1013B00072FF0F0055480168012212079143016036
:1013C0007047C0463E480168012291430160704762
:1013D0003B48016801229143016070473848016829
:1013E00001221202914301607047C04634480168EF
:1013F00001221202914301607047C04643480168D0
:1014000001221207114301607047C046014800687D
:101410007047C04604020B4082B0014601AA10701A
:101420001078024A1060009102B0704708030B4028
:1014300080B584B0014603AA108010880F221202E2
:101440005E4B02901846029B01911946FFF754FD2E
:1014500004B080BD70B588B013460C46054607AE93
:101460003080069105A802700493039402950196BA
:101470000090FFF7A7FF0198008800F023F8069876
:1014800000F032F80E480168012211430160009813
:101490000178C90700290DD0FFE7FFF7AFFFFFE78D
:1014A000FFF7B4FF012109020840884201D0FFE79D
:1014B000F6E702E0FFF77EFFFFE708B070BDC04629
:1014C00008010B4080B584B0014603AA1080108843
:1014D000032212030D4B02901846029B01911946FC
:1014E000FFF7EFFC04B080BD80B584B001460390E7
:1014F0000398064AFF2302901046029A0191114672
:101500001A46FFF7DEFC04B080BDC04610010B4058
:1015100082B0014601AA10701078024A1060009152
:1015200002B070470C010B4080B584B0014603AA9D
:1015300010701078054A032302901046029A019118
:1015400011461A46FFF7D8FC04B080BD00010B40DD
:1015500080B584B0014603AA10701078174A302372
:1015600002901046029A019111461A46FFF7C4FCF8
:1015700004B080BD80B582B0014601AA1070107819
:101580000091FFF7C5FFFFE7FFF740FF0121490585
:101590000840884201D0FFE7F6E7084801680122C9
:1015A000120411430160FFE7FFF730FF10210840EC
:1015B000102801D0FFE7F7E702B080BD04010B401F
:1015C00080B58EB00A4603460D900C910C98407978
:1015D000C00700280992089360D0FFE70C980079B3
:1015E0000028079004D0FFE7079820280CD017E0C8
:1015F0000D9888210222069100F072F90D980322BD
:10160000069900F06DF918E00D98974902220591AE
:1016100000F066F90D980322059900F061F90CE0DD
:101620000D980521C9010222049100F059F90D9885
:101630000322049900F054F9FFE70D9800210222DB
:101640000391039B02921A46029B00F069F90D98E0
:101650000321039A01911146019B00F061F90D9855
:101660006946029A0A600399039A039B00F0A0F965
:101670000D986946019A0A600399039A039B00F04A
:1016800097F90D980399039A029B00F06FF90D9852
:101690000399039A019B00F069F9FFE70C98006831
:1016A0000A900C9800790AA908710C988079487101
:1016B0000D9800F04BF80EB080BDC04682B00146D8
:1016C00001900198024A01238350009102B07047B3
:1016D0000811000070B587B013460C460546069009
:1016E00005A8017004920699074A89180391049984
:1016F000039A0078800016580E4316500293019406
:10170000009507B070BDC04658100000B0B584B059
:101710000A4603460390029102980399034C0D591F
:1017200005430D510192009304B0B0BD2810000094
:1017300082B00146019001980122D202024B8350EF
:10174000009102B07047C0460100002680B58EB0FF
:101750000A4603460D900C910C98007900280B92D4
:101760000A93099004D0FFE70998202812D02BE0B3
:101770000D980C990968491E00F08EF90D98882182
:101780000022089100F0ACF80D980122089900F0B1
:10179000A7F82CE00D980C990968491E00F07CF917
:1017A0000D9831490022079100F09AF80D98012117
:1017B000079A06911146069A00F092F80D9806993C
:1017C000490700F053F912E00D980C99096849088F
:1017D00000F062F90D980521C9010022059100F081
:1017E0007FF80D980122059900F07AF8FFE70D982F
:1017F00000210491049A049B00F092F80D980121B5
:10180000049A03911146039B00F08AF80D986946EB
:10181000049A0A601146049B00F0CAF80D986946C4
:10182000039A0A600499049A049B00F0C1F80D9889
:101830000499049A049B00F099F80D980499049A6D
:10184000039B00F093F80D98924940180C990A797F
:1018500049790A4302210A43044902911146029A36
:10186000FFF7F9FA0EB080BD01040000BFFF0030A1
:1018700082B0014601900198D74AD84B835000911D
:1018800002B0704710B584B00A4603460390029137
:10189000029803991124240208510192009304B084
:1018A00010BD0000B0B588B013460C460546079041
:1018B000069105A8027007992A4A891804910078B0
:1018C000049980000818049004980699072292044D
:1018D000039302940195FFF7BEFA08B0B0BDC0466D
:1018E000B0B588B013460C4605460790069105A88A
:1018F00002700799084A89180491007804998000B9
:101900000818049004980699044A039302940195D8
:10191000FFF7A1FA08B0B0BD70180000DBB6C1FF38
:10192000F0B589B01C4615460E460746089007914B
:10193000069205A8037008990A4A8918049100784C
:10194000049980000818049004980799069A114396
:10195000054A0394029501960097FFF77CFA09B0B7
:10196000F0BDC0463018000077770200F0B589B0AE
:101970001C4615460E46074608900791069205A894
:10198000037008993122D2018918049100780499D2
:1019900080000818049004980799069A11438F2232
:1019A0000394029501960097FFF755FA09B0F0BD30
:1019B000F0B58BB0109C1D4616460F460490039060
:1019C00004980A9009910892079306A90C700A9A44
:1019D000094BD21805920978059A8900511805918A
:1019E0000999089A1143079A1143059A11600295C3
:1019F000019600970BB0F0BD50180000B0B587B04D
:101A000013460C4605460690059104A802700699F7
:101A1000074A8918039100780399800008180390F9
:101A200005980399086002930194009507B0B0BD32
:101A30001018000010B584B00A46034603900291C6
:101A40000298007803998A4C0851029840780399CB
:101A5000012424030851029880780399024C08510C
:101A60000192009304B010BD0C11000010B584B0B9
:101A70000A460346039002910398064940180299CA
:101A800003242407019222460093FFF7E4F904B0EF
:101A900010BDC0460418000010B584B00A460346C5
:101AA0000390029102980399024C0851019200930D
:101AB00004B010BD0818000070B587B013460C467E
:101AC0000546069005A8017004A90A70069A074EFB
:101AD0009219039209780F221140039A007880002E
:101AE000115002930194009507B070BD44040000AA
:101AF00010B582B00146019001981122120283585C
:101B00000124A3438350009102B010BD10B582B0F0
:101B100001460190019811221202835801242343A7
:101B20008350009102B010BDB0B584B00A460346A0
:101B30000390029102980399034C0D5905430D51EE
:101B40000192009304B0B0BD2810000082B001469D
:101B5000019001980122D202024B8350009102B001
:101B60007047C0460100002680B586B00A4603468D
:101B700005900491059803920293FFF7B9FF059829
:101B800011210902401804990A888B781A43898820
:101B90000A430B4901911146019AFFF777F905981D
:101BA0002749401804998A79CB791A43097A0A435C
:101BB0007E2100911146009AFFF768F906B080BDBA
:101BC0001867020082B0014601900198024A034B57
:101BD0008350009102B0704704080000030000B178
:101BE000B0B588B013460C4605460790069105929D
:101BF00007981049401806990F4A049303940295D8
:101C0000FFF77AF907980D49401805993F22FFF729
:101C100073F907980A494218405801210840019079
:101C20001046019A00911146009AFFF765F908B035
:101C3000B0BDC04610110000FFFF000014110000ED
:101C40000411000010B584B00A46034603900291C7
:101C5000029800780399064C08510298407803993D
:101C60000124240308510192009304B010BDC04622
:101C70000810000010B584B00A4603460390029194
:101C8000039811210902401802990324E4030192E8
:101C900022460093FFF730F904B010BDF0B58DB0C7
:101CA0001C4615460E4607460C900B910AA802707A
:101CB000099300200890224909680791089006942A
:101CC000059504960397FFE708980AA909788842C2
:101CD00033DAFFE7FFE70C9800F0B6FC002100289C
:101CE000029110D0FFE7164800680799401A099939
:101CF0000122002388420193009201D301980090B1
:101D000000980290FFE70298C007002801D0FFE783
:101D1000E1E70B4800680799401A0999884201D306
:101D2000FFE70AE00C980B99089A895C00F006FD21
:101D3000FFE70898401C0890C6E70DB0F0BDC0460C
:101D40001C0B202080B58AB0284929480990FEF74D
:101D500079FF684600214160016001204204099B2F
:101D60000890184607911146079A089BFEF72CFF2A
:101D7000684607990161089A1306C3608160416053
:101D800001600998079A079BFEF79EFE08980104D8
:101D90000998FEF799FF02200999069008460699CE
:101DA000FEF7A6FF0998FEF7CFFE09980899FEF7FF
:101DB00073FF089801020998FEF7D4FE0998089964
:101DC000FEF7BEFF20200999059008460599FEF709
:101DD00069FE09980599FEF7D7FE0520069902F0DD
:101DE000A1F80998FEF7A1FE0AB080BDD84700000F
:101DF0000020004080B58AB0144901208207099074
:101E000010460892FEF71EFF0998010408980791F2
:101E1000FEF780FF684600210161C160816041607A
:101E2000016004220898099B06911946069BFEF75B
:101E30004BFE08980799FEF747FF02210898FEF726
:101E400057FF0898FEF771FE0AB080BDE04700001A
:101E500080B5034A03480021FFF7AFF880BDC046B4
:101E6000E847000000A0424080B5FFF7F1FF80BDC9
:101E700080B58CB009200B90FFF730F90A20FFF7EE
:101E80002DF92F2004210A91FFF748F901200105BF
:101E9000414A099010460892FFF7F8F8022007908F
:101EA0000A99FFF73BF9099801073C4A1046069248
:101EB000FFF7ECF8052005900599FFF72FF9099831
:101EC000C1070698FFF7E2F8102004900A99FFF77F
:101ED00025F908980499FFF7D9F80C200A99FFF71B
:101EE0001DF908980799FFF7D1F822200599FFF707
:101EF00015F9099841030698FFF7C8F800200799DB
:101F0000FFF70CF909980799FFF7F4F82620032149
:101F10000391FFF703F927200399FFF7FFF830201B
:101F20000799FFF7E7F821200399FFF7F7F8232037
:101F30000399FFF7F3F82C200399FFF7DBF81F2034
:101F4000FFF7C0F82B20FFF7BDF83120FFF7BAF8F4
:101F50003820FFF7B7F83920FFF7B4F83B20FFF738
:101F6000B1F83520FFF7AEF80B98010606980291FC
:101F7000FFF77CF806980299FFF788F80848089957
:101F8000019008460199FFF771F808980199FFF749
:101F90007DF80CB080BDC04600200A4000000A4019
:101FA0000080440C80B584B0144915480390FFF7B5
:101FB00041FD14490398FFF7C9FB68460121016000
:101FC0000020039A02901046029B019119461A467E
:101FD000FFF7EEFC03980299019AFFF763FC0A49A8
:101FE0000398019AFFF70AFD0398FFF767FB0221A8
:101FF0000398FFF747FC04B080BDC04600480000CE
:102000000040084004480000C409000080B586B0C4
:102010001F49F6480590FFF70DFD1E490598FFF78B
:10202000CFFA6846022101600020059A049010460C
:10203000049B039119461A46FFF7BAFC05980499C8
:10204000039AFFF72FFC354805990290084602993C
:10205000039AFFF7D3FC6846032101600598049AB0
:1020600001911146049BFFF7A3FC05980499019A7E
:10207000FFF718FC05980299019AFFF7BFFC059835
:10208000FFF71CFB0C210598FFF7FCFB06B080BD99
:102090000C4800001048000080B586B01D49D548A6
:1020A0000590FFF7C7FC1C490598FFF789FA6846B9
:1020B0000021016005980491049A049BFFF778FCC5
:1020C00005980499049AFFF7EDFB144805990390CD
:1020D00008460399049AFFF791FC684601210160C4
:1020E0000598049A02911146049BFFF761FC05983C
:1020F0000499029AFFF7D6FB05980399029AFFF715
:102100007DFC0598FFF7DAFA03210598FFF7BAFB83
:1021100006B080BD184800001C480000881300006D
:1021200080B582B00B49B6480190FFF795F80A498F
:102130000198FFF73DF809210198FFF777F8102182
:1021400002220198FFF7A0F80198FFF715F802B0F6
:1021500080BDC046244800002648000080B582B0FB
:102160000B49A6480190FFF777F80A490198FFF755
:102170001FF809210198FFF759F810210222019850
:10218000FFF782F80198FEF7F7FF02B080BDC04666
:10219000304800003248000080B582B00020019035
:1021A000FFF73AF901204002FFF742F90198FFF7E3
:1021B000BBF9FFF70DF9FFF719F9032000030199A7
:1021C000019AFFF747F90548FFF77EF81020FFF75F
:1021D000BFF90198FFF7CEF902B080BD3C4800007E
:1021E00080B582B0054800F00FF90021CA43019084
:1021F000104601F097FE02B080BDC0468038010055
:1022000080B584B01E497A480390FFF713FC1D493E
:102210000398FFF79BFA6846012101600020039AAA
:1022200002901046029B019119461A46FFF7C0FB27
:1022300003980299019AFFF735FB05208101039865
:10224000019AFFF7DBFB0398FFF738FA01980202C7
:1022500003980299FFF73EFA03980299019AFFF753
:102260002BFC019841020398FFF750FA15200299C0
:1022700001F058FE02210398FFF704FB04B080BD73
:10228000644800006848000080B582B01049B24838
:102290000190FFF7D7FC0F490198FFF765FC00217B
:1022A0000198FFF7E7FC412081001B220198FFF70E
:1022B00097FC012081020198FFF736FC0F200221D4
:1022C00001F030FE0198FFF721FC02B080BDC0464E
:1022D000704800007248000080B500F02FF8FFF74A
:1022E000C7FDFFF759FFFFF77BFFFFF78FFEFFF7F3
:1022F00087FFFFF7D1FEFFF755FEFFF7C5FFFFF79A
:102300002DFFFFF70DFFFFF71DFDFFF773FDFFF733
:10231000ABFD0648B8210022425405484254054806
:10232000242142540448425480BDC046E006202087
:102330009C072020800820205808202080B58CB0E1
:1023400029480B90FEF7FEFE56480A90FEF7FAFE6B
:1023500026480990FFF78CFA25480890FFF788FA7D
:1023600024480790FFF784FA23480690FFF780FA85
:1023700079480590FFF726FC20480490FEF748FFB7
:102380001F480390FEF744FF1E480290FEF74CFCE6
:10239000012080070190FEF747FC0B98FEF786FEB0
:1023A0000A98FEF783FE0998FFF7C2F90898FFF72D
:1023B000BFF90798FFF7BCF90698FFF7B9F9059838
:1023C000FFF7C4FB0498FEF7E5FE0398FEF7E2FE74
:1023D0000298FEF7EBFB0198FEF7E8FB1020FEF7F2
:1023E000DDFC0CB080BDC04600000A400000864005
:1023F00000008740002086400040084000A0464082
:10240000008046400020004080B584B00146029024
:102410000298401E000E0028019103D0FFE7012022
:10242000039013E00298401E0A4908600020C1434F
:10243000032200900846114601F074FD06480099F9
:1024400001601648072202600391FFE7039804B079
:1024500080BDC04614E000E018E000E080B582B026
:102460000E48016801221204914301600C48016882
:10247000491C016000687D218900FDF737FE0029B5
:10248000019006D1FFE701208105064800F020F900
:10249000FFE701F0B9FF02B080BDC04610E000E0E8
:1024A0001C0B202000200A4002480168491C0160E2
:1024B0007047C0460C02202010B584B02548016842
:1024C000491C0160244800F01FF924490A88244B64
:1024D00098540888185C03AA10700888401C08806B
:1024E0000888642804DBFFE71C4800210180FFE71F
:1024F00003A800780D2804D1FFE71A4801210160E4
:1025000025E003A800780A2820D1FFE715480068D5
:10251000012816D1FFE71148028813498B1C104C83
:102520000290184601912146FDF7F6FD02990A88AE
:10253000CA23019CE2520B4A002313600B800090D7
:1025400003E0084800210160FFE7FFE7FFE704B070
:1025500010BDC046AC0A202000801040140B202083
:10256000B00A2020180B20208C09202080B501F013
:102570001FFD01F02FFD01F049FD01F053FD01F0B9
:1025800067FD01F07FFD01F083FD01F089FD01F0A1
:102590008DFD01F095FD01F029FD01F02FFD80BDBD
:1025A00080B582B00120810701900846019900F0B2
:1025B000E3F81D4908800888FEF779F81B49FDF704
:1025C00063FE1B49FDF723FE1A49086008681A4993
:1025D000FEF754F800280FD1FFE7164800681749A6
:1025E000FEF730F8002807D1FFE7154801210170F8
:1025F000144800F012FC0CE011480078012807D1C3
:10260000FFE7104800F0FEFB0D4800210170FFE7D6
:10261000FFE701208007009000F018F9009800F013
:1026200005F902B080BDC046880920200040EC4476
:102630000000404104022020000010410000E04062
:10264000100220201402202082B00146019001983F
:10265000394A8058102210400009009102B070479A
:1026600010B584B00A46034603900291029803997C
:10267000024C08510192009304B010BD901200006A
:1026800082B0014601AA1070107840B20028009173
:1026900009DBFFE701A800781F21084001218140E4
:1026A00002480160FFE702B07047C04600E100E069
:1026B00010B584B00A46034603900291029803992C
:1026C0009524640108510192009304B010BD0000EC
:1026D00010B584B00A46034603900291029803990C
:1026E000024C08510192009304B010BDB0120000DA
:1026F00082B0014601900198024A8058C0B2009110
:1027000002B070473011000082B00146019001987C
:10271000024A8058C0B2009102B0704724110000F4
:1027200082B0014601900198034A8058042210406B
:102730008008009102B070471011000010B584B0FD
:102740000A460346039002A80170007803994524C5
:10275000A40108510192009304B010BD10B582B0DD
:10276000014601900198304A83580124A3438350C5
:10277000009102B010BDC04685B00A4603460490E1
:1027800003A8017004990078800008182521C90168
:102790004018029002980349405880B20192009379
:1027A00005B0704700505500B0B584B00A460346E6
:1027B000039002A80170039900780001081809210C
:1027C000490244580225AC4344500192009304B09E
:1027D000B0BD000010B582B0014601900198124AC8
:1027E0008358012423438350009102B010BDC0469A
:1027F00010B582B00146019001980B4A835801241C
:1028000023438350009102B010BDC04610B582B082
:10281000014601900198044A8358012423438350C0
:10282000009102B010BDC0460418000010B582B07F
:10283000014601900198044A83580124240223434D
:102840008350009102B010BD0411000010B582B099
:10285000014601900198112212028358012423435A
:102860008350009102B010BD10B582B001460190B6
:1028700001981122120283580124A343835000912E
:1028800002B010BD82B00146019001988122520130
:102890008058C0B2009102B07047000080B59AB075
:1028A0000146149014980279D207002A13911290CD
:1028B00000D180E112980168C96A81600168096BE2
:1028C000C1600168096A0161406912998968FDF770
:1028D00096FC129948628869C968FDF790FC1299C4
:1028E0008862486AC96A0122D20711901046FDF732
:1028F00086FC1199109008461099FDF795FE002866
:1029000033D1FFE71298406A1299C96AFDF7A8FE11
:1029100000282AD1FFE71298806A1299C96A012219
:10292000D2070F901046FDF76AFC0F990E900846EB
:102930000E99FDF779FE002817D1FFE71298806AFB
:102940001299C96AFDF78CFE00280ED1FFE700201E
:102950001299C8630864C86B0A685063086C0A68F7
:1029600090634C2001220A5425E14C200021129A48
:102970001154906A536A169015931598169B0D90F2
:1029800018460D9B0C91194601F0CCFDFDF712FF86
:102990008A4A8B4BFDF7D0FD8A4B0C9AFDF764FDFC
:1029A000129A13690B9018460A91FDF703FF0B9AD0
:1029B000099010460A9B08911946099A089BFDF751
:1029C00045FDFDF70BFF12990862086A7E49FDF785
:1029D00047FE002808D1FFE71298006A7D49FDF7FD
:1029E000BDFB1299086210E01298006A7749FDF762
:1029F0001BFE002808D1FFE71298006A7449FDF712
:102A0000ADFB12990862FFE7FFE71298416A08469A
:102A1000FDF7FDFB12998A6A079010461146FDF7F3
:102A2000F6FB0799069008460699FDF797FB129961
:102A30001C311890179118980021FDF703FE00280B
:102A400009D1FFE7189801F0B1FE1799086019A89D
:102A50000021017006E017980021016019A8FF21EC
:102A60000170FFE71298006A5B49FDF707FE002836
:102A700008D1FFE71298006A5849FDF7F1FD0028D8
:102A800009D1FFE71298C1690122D007FDF7B7FB12
:102A90001299C861FFE71298006A1299096BFDF755
:102AA000EDFD002813D1FFE71298006A1299096B17
:102AB0000122D20705901046FDF7A1FB059904906D
:102AC00008460499FDF7CCFD002804D1FFE700205B
:102AD0001299C86308E01298406B1299C969FDF712
:102AE00096FB1299C863FFE71298806B12990A68E7
:102AF0005169FDF78CFB1299096AFDF788FB129961
:102B00000864C86B496CFDF78FFD002804D1FFE70E
:102B10001298416CC1631CE01298C06B1299496C09
:102B20000122D20703901046FDF769FB039902903A
:102B300008460299FDF794FD002809D1FFE7129895
:102B4000416C0122D007FDF75AFB1299C863FFE7D9
:102B5000FFE71298006C1299896CFDF765FD00285B
:102B600004D1FFE71298816C01641CE01298006C9C
:102B70001299896C0122D20701901046FDF73FFBA4
:102B80000199009008460099FDF76AFD002809D1D7
:102B9000FFE71298816C0122D007FDF730FB1299F4
:102BA0000864FFE7FFE71298C16B02685163016C8C
:102BB00002689163FFE71AB080BDC046182D4454E7
:102BC000FB21094000806640000034C3000034430C
:102BD0000000B4C30000B4430000B4420000B4C21B
:102BE00010B584B00A460346039002910398002171
:102BF0000171416181610A4CC4627F24E405046370
:102C00004463484C8463C1630164446484644C2419
:102C10000155029901600192009304B010BDC046B5
:102C20000AD7A33B80B588B0014607900798027980
:102C3000D207002A0691059050D0FFE705988068DA
:102C40000599CA681168FDF7DAFA0599086188697B
:102C5000096AFDF7DCFA0599C969FDF7D8FA059903
:102C60004A69096904901046FDF7D1FA0499039066
:102C700008460399FDF772FA05998862886A496ADD
:102C8000FDF7D2FC002804D1FFE70598416A816274
:102C90001CE00598806A0599496A0122D2070290D2
:102CA0001046FDF7ACFA0299019008460199FDF72C
:102CB000D7FC002809D1FFE70598416A0122D00717
:102CC000FDF79DFA05998862FFE7FFE70598016A1D
:102CD00002685163816A02689163FFE708B080BDB2
:102CE00084B00A46034603900291039800210171C3
:102CF0008160016108494161084981610849C161F8
:102D00000849016241620299016002994831C1603B
:102D10000192009304B070476F12833ACDCC0C3E01
:102D2000000080BFCDCCCC3D80B584B0014603907F
:102D30000398064A029010460191FFF767FD632051
:102D400080004021029A115204B080BD00008740EB
:102D500080B584B0014603900398104A1268036856
:102D60000290104601911946FDF7C0F90029009024
:102D70000CD1FFE71520FFF783FC412080000021E4
:102D8000029A11502120C0001154FFE74120800019
:102D900002990A58521C0A5004B080BD1C0B202016
:102DA00082B00146019001980A22026041229200FD
:102DB000002383502122D200835419221201835010
:102DC000009102B0704782B0014601900198002244
:102DD000C26102624262826242638263C2630264CF
:102DE00042648264C264009102B0704782B00146BE
:102DF000019001980022027042804260826000913E
:102E000002B0704780B582B0014601900198006819
:102E10000091FFF7A3FC02B080BD80B582B00146EF
:102E20000190019800680091FFF7E2FC02B080BDBC
:102E300084B00A4603460390029103980299016008
:102E40000192009304B0704710B596B001461590FA
:102E50001598CA22825A0A2A10910F9000D0AEE02B
:102E60000F98418814AA1180C188564A88180E927A
:102E7000FDF712FC452109060D91FDF705FAFDF756
:102E800099FC514A514B0C920B93FDF7DFFAFDF779
:102E9000A5FC13900F9881880E9A8818FDF7FCFB0B
:102EA0000D99FDF7F1F9FDF785FC0C9A0B9BFDF7E9
:102EB000CDFAFDF793FC12900F980189444A1180D6
:102EC000444900220A801192FFE7119802280EDC83
:102ED000FFE7119840000F99081840883D4A138871
:102EE00018181080FFE71198401C1190EDE73A4840
:102EF0000168491C01603748008835490988401A33
:102F00003649086014A80088022857DCFFE70F98AC
:102F10008188334A914251DCFFE70F98C188304ADB
:102F200091424BDCFFE72B480088294909888842F9
:102F300044D1FFE714A80088CC210F9A5050139871
:102F4000FDF738FC274A284B0A920993FDF78CFAC3
:102F5000D4220F9B9C580890204607910692FDF7BB
:102F600029FC224A224B05920493FDF77DFA089A28
:102F7000079BFDF76BFAFDF731FC0F99069A885015
:102F80001298FDF717FC0A9A099BFDF76DFAD022FB
:102F90000F9B9C580390204602910192FDF70AFC7A
:102FA000059A049BFDF760FA039A029BFDF74EFA1F
:102FB000FDF714FC0F99019A8850FFE7FFE716B060
:102FC00010BDC04600F8FFFFEC51B81E85EBB13FC5
:102FD000D8062020DA062020680A2020DC062020DF
:102FE000FF0F00009A9999999999B93FCDCCCCCC13
:102FF000CCCCEC3F80B582B0014601900198012213
:1030000002700091FFF720FF02B080BD10B584B0C0
:103010000A46034603900291039800210170CA24D6
:103020000153CC240151D0240151D42401510299DF
:10303000D82401510192009304B010BD10B5B2B074
:1030400001463190319882692B9010462A91FDF704
:10305000B1FBD34AD34B29922893FDF705FA2B9A5B
:1030600053689B689468A468279018462691214667
:10307000FDF774F8012189072591FDF705F9FDF7A2
:1030800099FBFB4AFB4B24922393FDF7EDF9279A1A
:1030900022901046269B21911946229A219BFDF7EA
:1030A00031F9FDF79BFB2B998861C869FDF782FB1D
:1030B000299A289BFDF7D8F92B9A93689B68546846
:1030C000A468209018461F912146FDF798F825998D
:1030D000FDF7DAF8FDF76EFB249A239BFDF7C4F9A0
:1030E000209A1E9010461F9B1D9119461E9A1D9BEB
:1030F000FDF708F9FDF772FB2B99C86108780028E5
:103100001C9009D0FFE71C98012811D0FFE71C98FC
:10311000022800D1A2E1A8E12B98416800220A70A0
:1031200081680A70026242628262C26202639DE149
:103130002B98406B2B99896BFDF761F8CE491B9159
:10314000FDF765F830902B98406B2B99896BFDF754
:1031500005F81B99FDF75BF82F90C8482E90309822
:103160000021FDF761FA002806D1FFE72E9930987B
:10317000FCF7F4FF30900DE030980021FDF770FA75
:10318000002806D1FFE72E993098FDF738F83090E7
:10319000FFE7FFE72F980021FDF746FA002806D148
:1031A000FFE72E992F98FCF7D9FF2F900DE02F986D
:1031B0000021FDF755FA002806D1FFE72E992F9838
:1031C000FDF71DF82F90FFE7FFE73098AC49FDF7BA
:1031D0002BFA002803D1FFE7A94830900AE0309885
:1031E000A849FDF73DFA002803D1FFE7A548309034
:1031F000FFE7FFE72F98A249FDF716FA002803D151
:10320000FFE79F482F900AE02F989E49FDF728FA84
:10321000002803D1FFE79B482F90FFE7FFE72B989B
:1032200041680222885E1A911992FDF75DFA964A6A
:10323000964B18921793FDF717F9309A169010468F
:103240001591FDF7B7FA8A4A914B14921393FDF743
:103250000BF9FDF78BFAFDF747FA169A1290104614
:10326000159B11911946129A119BFDF74BF8FDF72A
:103270007DFA1A9948802B988268199BD05E10922B
:10328000FDF732FA189A179BFDF7EEF82F9A0F9078
:1032900010460E91FDF78EFA149A139BFDF7E4F891
:1032A000FDF764FAFDF720FA0F9A0D9010460E9B79
:1032B0000C9119460D9A0C9BFDF724F8FDF756FA70
:1032C000109948802B98426801231370826813700C
:1032D000826890682B9A53689968FCF790FF2B9945
:1032E0004969FCF7D1FFFDF765FA6A4A6A4BFDF7B9
:1032F00023F90022694B0B92FDF7B6F8684B0B9A45
:10330000FDF71AF92B9A536A0A9018460991FDF7AE
:1033100051FA0A9A099BFCF7F5FFFDF75FFA2B9922
:103320004862C86880695F49FCF7AEFF2B998A6ADA
:10333000089010460899FCF711FF2B998862886A5B
:103340005949FCF7A1FF5949FCF761FF2B99086225
:10335000086A5749FDF776F9002819D1FFE72B983D
:10336000016A534A084607911146FCF78DFFFDF7A5
:10337000CFF92D21C90041430846FDF78DF9079982
:10338000069008460699FCF73AFF2B99086226E05A
:103390002B98006A0021FDF763F900281ED103E095
:1033A000CDCCCCCCCCCCEC3F2B98016A404A084623
:1033B00005911146FCF768FFFDF7AAF92D21C90018
:1033C00041433C480818FDF767F905990490084601
:1033D0000499FCF714FF2B990862FFE7FFE7002030
:1033E0002D902C902B98006A2CA92DAA00F07EFE1F
:1033F0002B98416888682B998A689168FCF7AEFE23
:10340000012189070391FCF73FFF2D99FCF7FFFE8F
:1034100024490291FCF738FF2B99CA6A01901046A3
:103420000199FCF79BFE2B99C862486880688A68FE
:103430009168FCF793FE0399FCF726FF2C99FCF7A3
:10344000E6FE0299FCF720FF2B990A6B00901046CC
:103450000099FCF783FE2B99086307E02B984168DD
:1034600002220A7081680A7000E0FFE732B010BDE6
:103470009A9999999999B93F00D763470000CA432F
:1034800000409C4500409CC5666666666666EE3FE9
:103490009999A93F182D4454FB21094000806640AA
:1034A00000408F4000007A4400405D4500006145C7
:1034B0000000B44398FEFFFF80B59AB00146199012
:1034C00019980022189211911090FFE718987F2800
:1034D00019DCFFE710980169189A5300C918888809
:1034E0000F92FDF7E4F80F998A00A34B99580E92BA
:1034F000FCF78DFE10990E9A8B185865FFE7189807
:10350000401C1890E2E795481790002016901890FC
:10351000FFE718987F282ADCFFE7189880001099A9
:103520000818406D1699FDF77FF8002807D1FFE7CE
:103530001898800010990818406D169012E018989D
:10354000800010990818406D1799FDF789F8002838
:1035500007D1FFE71898800010990818406D179060
:10356000FFE7FFE7FFE71898401C1890D1E716988F
:103570001799FCF744FE7A49FDF756F800280DD15B
:10358000FFE716981799FCF7E9FD01218907FCF779
:103590007BFEB5218900109A505005E0B5208000CF
:1035A0000021109A1150FFE700201890FFE71898AB
:1035B0007F2822DCFFE71898800010990818406DDA
:1035C000B52292008958FDF72FF8002808D1FFE7AF
:1035D000189810990818952292000123835407E047
:1035E0001898109908189522920000238354FFE739
:1035F000FFE71898401C1890D9E700201590149008
:1036000003201890FFE718987C2816DCFFE718982D
:103610001099081895229200805C002808D1FFE7D5
:103620001498401C14901898159908181590FFE7E5
:10363000FFE71898401C1890E5E71498022805D871
:10364000FFE744200021109A115433E04420012167
:10365000109A1154906CFDF7ADF8424A424BFCF7BA
:1036600003FF159A0D9010460C91FDF720F8149960
:103670000B900846FDF71BF80B990A9008460A992B
:10368000FCF702FE3949FCF769FDFDF793F8384A6B
:10369000384BFCF7E9FE0D9A099010460C9B0891F7
:1036A0001946099A089BFCF72DFEFDF797F810992B
:1036B0008864FFE744201099085CC00700284AD0BE
:1036C000FFE70020139012901098006A12A913AA25
:1036D00000F00CFD1098C06A1099CA6B13990790FE
:1036E0001046FCF794FD0799069008460699FCF7EA
:1036F00035FD10998A6C096C05901046FCF787FD22
:103700001299FCF784FD0599049008460499FCF78A
:1037100025FD1099C864086BCA6B12990390104676
:10372000FCF775FD0399029008460299FCF716FD17
:1037300010998A6C096C01901046FCF768FD13998A
:10374000FCF765FD0199009008460099FCF757FDCC
:1037500010990865FFE71AB080BDC04600803B4560
:1037600000002F44CDCCCCCCCCCCEC3F000080C2B0
:103770009A9999999999B93F04002020F0B58BB096
:10378000119C109D1E461746069008460590069807
:10379000049006980A900991089207930A990022CA
:1037A0008A61CA610A624A628A62CA620A634A63B9
:1037B0008A630D4BCB630D4B0B644423CA548A645C
:1037C000CA640A65099A4A60089A8A60079ACA60B8
:1037D000109A0A61119A4A6108460394029501966B
:1037E00000970BB0F0BDC0465839B43D0F506E3A4B
:1037F000B0B583B001460290029882681268920FB9
:10380000002A019100900BD1FFE700980169194A45
:10381000914205D3FFE70098C168491CC16012E0DE
:10382000009881680968134A91420BD3FFE700981A
:103830000169890F002905D1FFE70098C168491E79
:10384000C160FFE7FFE7009881680968C268036903
:1038500000245B42A241C9186241436805686918A7
:10386000534101604360C46081680968016103B02D
:10387000B0BDC046010000C084B00A4603460390B4
:1038800002910398002141600160C16001610175EE
:10389000029981600192009304B07047F0B591B035
:1038A00013460C46054610900FA801700EA90A7029
:1038B000109A0DAE882737700C9010680B905068E6
:1038C0000A900B9809910A99089307940695059216
:1038D00004960397FEF7ECFE0598C0680121FF22CD
:1038E000049B02911946029C01922246019BFEF71D
:1038F000D5F90598C0680C99029A019BFEF7CEF99C
:103900000598006805994968FEF7AAFE9020049979
:103910000870059A1368516800901846FEF7C8FEB3
:103920000598C0680499029A019BFEF7B7F90598BB
:10393000C0680999029A019BFEF7B0F905980068E2
:1039400005994968FEF78CFE039804990870059A5A
:1039500010689168FEF7ACFE0598C0680499029A59
:10396000019BFEF79BF90598C0680C99029A019B90
:10397000FEF794F90598006805998968FEF770FECE
:10398000009804990870059A10689168FEF790FEF7
:103990000598C0680499029A019BFEF77FF9059883
:1039A000C0680999029A019BFEF778F905980068AA
:1039B00005998968FEF754FE059800F005F8072080
:1039C0000599086211B0F0BD10B586B001460590AA
:1039D000059804AA202313700368446803901846CE
:1039E000029121460192FEF763FE03980068039955
:1039F0008968FEF75DFE0398C0680122FF230199E4
:103A0000FEF74CF90398006803994968FEF728FE11
:103A10000398006803998968FEF722FE06B010BD7E
:103A200010B588B001460790079806AAE8231370DE
:103A30000368446803901846029121460192FEF7FC
:103A400037FE0398006803998968FEF731FE0398F2
:103A5000C0680122FF230199FEF720F9039800684E
:103A600003994968FEF7FCFD03980068039989688B
:103A7000FEF7F6FD68200199087003980068039A24
:103A80005168FEF715FE0398C06801990978039AFA
:103A90001832042300F06EFC03980068039949680B
:103AA000FEF7DEFD00200590FFE7059803280EDCF9
:103AB000FFE7059803990A18127E0323181A0818BD
:103AC0002423C254FFE70598401C0590EDE70398B6
:103AD000416A016106A968220A700068039A936826
:103AE00000911946FEF7E4FD0398C0680099097833
:103AF000039A1C32042300F03DFC039800680399EC
:103B00008968FEF7ADFD00200490FFE704980328C4
:103B10000EDCFFE7049803990A18127F0323181A92
:103B200008182423C254FFE70498401C0490EDE7D2
:103B30000398416A416108B010BDF0B58AB00F9C8E
:103B40001D4616460F460590049005980990089169
:103B500007920693099900220A62069A4A600F9A10
:103B60008A60079A0A60089ACA6008460394029518
:103B7000019600970AB0F0BDB0B588B013460C4668
:103B80000546079006A8017005A90A80079A926960
:103B90000988007804901046049A039302940195D2
:103BA000FDF72CFF08B0B0BD80B58CB001460B907E
:103BB0000B980222825E4A4B9A420A91099004DBDA
:103BC000FFE74A48099948800BE002200999085EFE
:103BD000444A904204DCFFE7434809994880FFE7E4
:103BE000FFE7099801780029089108D0FFE70898B5
:103BF000012815D0FFE7089802285ED06DE000206C
:103C000009994880097F3948099A07901046079A10
:103C1000FFF7B2FF0998417F079AFFF7ADFF5CE01D
:103C200002200999085E002824DAFFE70998017F3D
:103C30000222825E002A069105DBFFE70220099935
:103C4000085E059005E002200999085E4042059053
:103C5000FFE705982549081A82B20698C3B2099869
:103C600004911946FFF788FF0998417F049AFFF7EE
:103C700083FF21E00998017F1C4AFFF77DFF099827
:103C8000417F0222825E002A039105DBFFE70220CA
:103C90000999085E029005E002200999085E4042F9
:103CA0000290FFE702981149081A82B20398C1B244
:103CB0000998FFF761FFFFE70FE0002009994880AE
:103CC000097F099A01901046019AFFF755FF09985C
:103CD000417F019AFFF750FFFFE70CB080BDC0465F
:103CE0008913000077ECFFFF78EC000088130000D8
:103CF00080B590B001460F900F98C2681368526863
:103D00000D9018460C911146FCF7D8FC0121C9070B
:103D10000B9008460B99FCF772FA0D990969FCF7AC
:103D2000B3FA3E490A91FCF772FA0E900D98C168F9
:103D300009680162C16800224A600A600E98384929
:103D40000992FCF7A1FAFCF735FD364A364BFCF731
:103D50008BFB364B099AFCF787FB0D9A5369089049
:103D600018460791FCF726FD089A06901046079B17
:103D700005911946069A059BFCF776FBFCF72EFD8C
:103D80000D9988600E990D984068FCF7E7F90D9938
:103D9000486048680A99FCF755FC002819D1FFE7EC
:103DA0000D9841681D4A084604911146FCF76CFACB
:103DB000FCF7AEFC2D21C90041430846FCF76CFC22
:103DC0000499039008460399FCF719FA0D99486085
:103DD00022E00D9840680021FCF742FC00281AD12F
:103DE000FFE70D9841680D4A084602911146FCF71D
:103DF0004BFAFCF78DFC2D21C90041430C480818F3
:103E0000FCF74AFC0299019008460199FCF7F7F982
:103E10000D994860FFE7FFE710B080BD0000B44394
:103E200000003443182D4454FB21094000408F40CA
:103E300098FEFFFF80B582B001460190019880692D
:103E40000091FEF7C7FC02B080BD80B584B001468A
:103E50000390039802900191FFF74AFF0298FFF741
:103E6000A3FE04B080BDF0B58DB0149C139D129ECE
:103E70001F4608901046079008460690089805903F
:103E800008980C900B910AA90A7009A90B700C995B
:103E9000084604940395029601970091FEF7A6FF49
:103EA0000020009908620B9888610A9808770998A1
:103EB00048771298C86013980861149848610846BA
:103EC0000DB0F0BD82B0014601AA1070107840B26A
:103ED0000028009109DBFFE701A800781F210840B6
:103EE0000121814002480160FFE702B07047C046EF
:103EF00080E200E082B0014601AA1070107840B262
:103F00000028009109DBFFE701A800781F21084085
:103F10000121814002480160FFE702B07047C046BE
:103F200000E100E070B584B00A46034603AC20709F
:103F30000291207840B200280192009317DBFFE73E
:103F400003A8017849B20322D2431140174BC95844
:103F5000007840B28407E40EFF25A540A943029DE6
:103F6000AD01EDB2A54029431040C1501AE003A8AD
:103F700001780F22114008390323DB4319400A4C12
:103F80000959007840B28507ED0EFF26AE40B143D7
:103F9000029EB601F6B2AE403143104008381840D8
:103FA0000151FFE704B070BD1CED00E000E400E04B
:103FB00080B582B0684601210A060260E948CB0656
:103FC0000249034AFFF7B9FD02B080BD00804640B8
:103FD00000000A4080B582B0E248103027490190C5
:103FE00008460199FFF748FC02B080BD80B5024841
:103FF0003C49FEF7F5FD80BD8806202080B50248CB
:104000003849FEF76DFE80BD5C09202080B582B086
:10401000D44814300C49019008460199FFF72CFC54
:1040200002B080BD80B584B06846124981601249F3
:10403000416005490160CC48044903220223FFF78F
:1040400012FF04B080BDC046700A202000008640E8
:1040500080B584B0684607498160074941600749D7
:104060000160C248064900220123FFF7FCFE04B0AC
:1040700080BDC046E8DC873C00408345F80820202E
:104080000020864080B5BA48FEF78AFE80BDC04653
:1040900080B5F8480149FEF7B9FF80BD00801040A7
:1040A00080B51148FEF78FFE80BDC04680B502483E
:1040B0000249FEF7BDFE80BD1402202000400840EA
:1040C00080B582B0684606494160EB490160EB4823
:1040D000E649E74A044BFFF751FB02B080BDC046FA
:1040E0006666E63DB0032020A8082020F0B589B020
:1040F0000392059104906C49FCF789F8044601206D
:10410000C007079084432046FCF702FBFCF7C4FA83
:1041100001462046FCF773F811218906FCF777F871
:104120000090FCF70EFB04468030C005400D5F4D4B
:1041300029580891281840680290FCF760F8064654
:104140005B4F2740BC002819416806910798FCF78F
:1041500056F82D592946FCF752F85649FCF757F8FE
:10416000044630463146FBF7F9FF01462046FCF78E
:1041700046F804463846FCF79AFA01460098FCF7E0
:104180003EF800902146FCF742F804464A49304682
:10419000FCF73DF806462F4628462946FBF7DEFF8A
:1041A00001460698FBF7DAFF424D2946FCF72FF847
:1041B00001463046FBF7D2FF2146FBF7CFFF014611
:1041C000009E3046FCF723F80446384601972946FE
:1041D000FCF71DF801462046FCF711F80146304671
:1041E000FCF715F80146089C2046FBF7B7FF03993A
:1041F000086006983946FCF702F807462046029DFB
:104200002946FBF7ABFF2B49FCF701F8044638467B
:104210003946FBF7A3FF01462046FBF7F0FF0146B6
:1042200034463046FBF7F3FF064638462249FBF793
:10423000EEFF074608980146FBF790FF0146284627
:10424000FBF78CFF1B4D2946FBF7E1FF0146384683
:10425000FBF7D5FF3146FBF781FF01462646204696
:10426000FBF7D5FF044608982946FBF7D0FF214607
:10427000FBF774FF01463046FBF7C9FF0146019882
:10428000FBF76CFF044607982146FBF7B8FF05468D
:1042900000210498FCF7D6F9002800D1254605989E
:1042A000056009B0F0BDC046610B363B7C4800009C
:1042B000FF010000DB0F493C0000404083B0014695
:1042C00002900848006801900091FFE705480068E7
:1042D0000199029A8918884201D2FFE7F6E703B0F4
:1042E0007047C0461C0B202080B584B0002003908E
:1042F0000290FDF7F1FF0D480299FCF749FE1520E9
:10430000FFF7F8FD0F200190FFF7DCFD0520FFF718
:10431000F1FD0198FFF7EEFD012081050448FCF74F
:104320001BFF00F007F8FFE7FEE7C04600A0424091
:1043300000200A4080B54A4803210022FFF7AEFA68
:104340004B48FFF777FD4948FFF774FD4A48FEF7F1
:10435000EBFC7D20C000FFF7B1FF40480121017058
:1043600080BDC04634092020880A20201009202062
:104370001C022020F0B58BB01C4615460E460746A1
:104380000A9009A80170089207A90B800A99007881
:104390000590084605990494039502960197FEF747
:1043A000CDF9FFE70A98FEF74FF9002801D0FFE7A3
:1043B000F8E700200690FFE7069807A909888842D9
:1043C0001FDAFFE70A980021FEF7B8F9FFE70A981D
:1043D000FEF73AF9002801D0FFE7F8E7FFE70A986F
:1043E000FEF79EF9002807D1FFE70A98FEF780F94B
:1043F0000899069A8854F2E7FFE70698401C069051
:10440000DAE70BB0F0BD000080B514480078C007B3
:1044100000281FD0FFE71248FFF702FB1148FFF703
:10442000E7F91148FFF7E4F91048FFF70EFD1048CF
:10443000FFF70BFD0F48FEF7DDFD0F48FEF788FC88
:104440000E48FEF7FBFD0E48FEF728FA0D48FEF772
:10445000E9FBFFE7FEF7A4F880BDC0461802202064
:1044600034092020F8082020700A2020100920207C
:10447000880A20208C0920201C022020B003202044
:10448000880620205C0920202021020C01D0102168
:104490001046020A01D010460839020901D0104620
:1044A000091F820801D01046891E420801D0881ECB
:1044B0007047081A70474100080200D004200A0E15
:1044C00001D001221043090EFF2901D10221084326
:1044D000012800D10520704710B5FBF73FFE10BD45
:1044E0005E2110B5C9430807FCF7A8FA10BD00000B
:1044F00002E008C8121F08C1002AFAD17047000064
:104500007047000000000000002001E001C1121F00
:10451000002AFBD170470000014908607047000085
:1045200000002020F0B50C4601461D224B00D206AB
:104530009F18E52605463606620087B02046B7423A
:104540007BD21D27FF06D719B74276D24F0046000F
:104550003A0E330ED21A1B2A07DD002902DA8048F0
:1045600007B0F0BD7F4807B0F0BD1A23DA422FDA5A
:10457000002807DA002902DA7B4807B0F0BD7B4843
:1045800007B0F0BD21462846FBF77EFE0646FFF742
:1045900092FF042801D1FFF7A3FF2846FFF78BFF06
:1045A00005462046FFF787FF04463046FFF783FFA6
:1045B000042D01D0052D08D1042C01D0052C04D1E7
:1045C000002802D10220FFF7A7FF304607B0F0BD58
:1045D000B74211D9002902DA654F664E01E0664FF5
:1045E000664E23462C461D4601220346D207084646
:1045F0005440504019460BE0002807DA002902DA3F
:104600005F4F604E04E0604F604E01E00026374689
:10461000421A012352001B069A422FD248405C499D
:104620000CD5BF20000603903846FBF7E8FD07468F
:1046300058493046FBF7E3FD0BE053E03F2000060E
:1046400003903846FBF78AFD074652493046FBF790
:1046500085FD064628460399FBF7D9FD2146FBF761
:104660007DFD009021460398FBF7D1FD2946FBF71D
:10467000CAFD0099FBF708FE044604E021462846DF
:10468000FBF702FE04460146FBF7C1FD42490090DC
:10469000FBF7BDFD4149FBF761FD0099FBF7B7FD55
:1046A0003F49FBF75BFD0099FBF7B1FD3D49FBF787
:1046B00055FD0099FBF7ABFD3B49FBF74FFD054668
:1046C00020460099FBF7A3FD2946FBF7A0FD3146E4
:1046D000FBF744FD2146FBF741FD3946FBF73EFD64
:1046E00007B0F0BDFF263606B34201D8B24205D965
:1046F00001462846FFF7F0FE07B0F0BD2F460743FE
:104700007F000AD0B3420CD1B2420AD101229207F3
:10471000904391430D46044618E7FF22D20510430B
:10472000F9E7B34208D0460006D05340F4D4002A3B
:1047300008DB9F26F60507E0FF22D2051143E00FB4
:10474000C00703E75F26F60531462846FBF75FFD05
:10475000054631462046FBF75AFD04462946F5E654
:10476000DB0FC9BFDB0FC93FDB0F49C0DB0F49407F
:104770000000C9BF22AAFDB90000C93F22AAFD3925
:10478000000049C022AA7DBA0000494022AA7D3A11
:104790000060ED3EC30ACE372DAD65BD8FB8D53D67
:1047A0000FB511BE61C84C3EA8AAAABE70B5054699
:1047B000FCF7A5F841000446FF204908C005411A4E
:1047C000C90F07D069004908401AC00F02D1012063
:1047D000FFF7A2FE204670BD0105000000000000AA
:1047E00001050000000000001800000000000000AB
:1047F00000000000000100010000000000000300B4
:1048000008070000881300002000000008000000D6
:104810008813000020010000080000008813000039
:104820002001000008000400000000000710000044
:104830000800040000010000071000000100000053
:104840000000000000000000000000000000000068
:10485000100000000001000007000000010000003F
:104860002C00C4410800000080020000200000006D
:1048700008000000180000000030000000000000E8
:10488000920E493CB10AC93C2BC3163D2EFB483D54
:10489000752B7B3D04A9963D80B6AF3D36BDC83D26
:1048A0002FBCE13D73B2FA3D87CF093E8340163EEF
:1048B000B5AB223EA2102F3ECF6E3B3EC2C5473E57
:1048C0000115543E135C603E7F9A6C3ECCCF783E1F
:1048D000C07D823E938E883E229A8E3E32A0943EC8
:1048E00086A09A3EE59AA03E128FA63ED47CAC3EAE
:1048F000EF63B23E2A44B83E491DBE3E15EFC33EAB
:1049000053B9C93ECA7BCF3E4136D53E80E8DA3E38
:104910004F92E03E7533E63EBBCBEB3EEA5AF13EAA
:10492000CBE0F63E275DFC3EE4E7003F3D9C033FC5
:10493000824B063F9BF5083F6B9A0B3FDA390E3FDF
:10494000CDD3103F2A68133FD9F6153FC07F183FDB
:10495000C6021B3FD17F1D3FCBF61F3F9967223F09
:1049600025D2243F5636273F1594293F4AEB2B3F4B
:10497000DE3B2E3FBB85303FC9C8323FF304353F95
:10498000233A373F4268393F3B8F3B3FF9AE3D3FCB
:1049900067C73F3F70D8413F01E2433F03E4453FD3
:1049A00065DE473F12D1493FF8BB4B3F029F4D3F69
:1049B000207A4F3F3D4D513F4918533F31DB543F23
:1049C000E595563F5348583F6AF2593F1A945B3F6A
:1049D000532D5D3F05BE5E3F2146603F97C5613F59
:1049E0005A3C633F59AA643F880F663FD86B673FC4
:1049F0003CBF683FA7096A3F0C4B6B3F5E836C3F2F
:104A000093B26D3F9ED86E3F73F56F3F0809713FBB
:104A10005213723F4714733FDD0B743F0BFA743F20
:104A2000C6DE753F07BA763FC58B773FF853783FB0
:104A30009812793F9DC7793F02737A3FBE147B3F3E
:104A4000CDAC7B3F283B7C3FC9BF7C3FAC3A7D3F30
:104A5000CCAB7D3F23137E3FB0707E3F6DC47E3F65
:104A6000580E7F3F6D4E7F3FAB847F3F0FB17F3F3E
:104A700097D37F3F43EC7F3F11FB7F3F0000803F98
:104A800011FB7F3F43EC7F3F97D37F3F0FB17F3FC9
:104A9000AB847F3F6D4E7F3F580E7F3F6DC47E3F9E
:104AA000B0707E3F23137E3FCCAB7D3FAC3A7D3F61
:104AB000C9BF7C3F283B7C3FCDAC7B3FBE147B3FD6
:104AC00002737A3F9DC7793F9812793FF853783F38
:104AD000C58B773F07BA763FC6DE753F0BFA743F4A
:104AE000DD0B743F4714733F5213723F0809713F47
:104AF00073F56F3F9ED86E3F93B26D3F5E836C3F00
:104B00000C4B6B3FA7096A3F3CBF683FD86B673FC0
:104B1000880F663F59AA643F5A3C633F97C5613F7F
:104B20002146603F05BE5E3F532D5D3F1A945B3FBB
:104B30006AF2593F5348583FE595563F31DB543FA1
:104B40004918533F3D4D513F207A4F3F029F4D3F03
:104B5000F8BB4B3F12D1493F65DE473F03E4453F79
:104B600001E2433F70D8413F67C73F3FF9AE3D3F49
:104B70003B8F3B3F4268393F233A373FF304353F91
:104B8000C9C8323FBB85303FDE3B2E3F4AEB2B3F4F
:104B90001594293F5636273F25D2243F9967223F57
:104BA000CBF61F3FD17F1D3FC6021B3FC07F183F82
:104BB000D9F6153F2A68133FCDD3103FDA390E3F9F
:104BC0006B9A0B3F9BF5083F824B063F3D9C033F92
:104BD000E4E7003F275DFC3ECBE0F63EEA5AF13EBB
:104BE000BBCBEB3E7533E63E4F92E03E80E8DA3ECB
:104BF0004136D53ECA7BCF3E53B9C93E15EFC33EC1
:104C0000491DBE3E2A44B83EEF63B23ED47CAC3E62
:104C1000128FA63EE59AA03E86A09A3E32A0943E10
:104C2000229A8E3E938E883EC07D823ECCCF783EC7
:104C30007F9A6C3E135C603E0115543EC2C5473EF0
:104C4000CF6E3B3EA2102F3EB5AB223E8340163EB8
:104C500087CF093E73B2FA3D2FBCE13D36BDC83D5A
:104C600080B6AF3D04A9963D752B7B3D2EFB483D9C
:104C70002BC3163DB10AC93C920E493C000000000E
:104C8000920E49BCB10AC9BC2BC316BD2EFB48BD50
:104C9000752B7BBD04A996BD80B6AFBD36BDC8BD22
:104CA0002FBCE1BD73B2FABD87CF09BE834016BEEB
:104CB000B5AB22BEA2102FBECF6E3BBEC2C547BE53
:104CC000011554BE135C60BE7F9A6CBECCCF78BE1B
:104CD000C07D82BE938E88BE229A8EBE32A094BEC4
:104CE00086A09ABEE59AA0BE128FA6BED47CACBEAA
:104CF000EF63B2BE2A44B8BE491DBEBE15EFC3BEA7
:104D000053B9C9BECA7BCFBE4136D5BE80E8DABE34
:104D10004F92E0BE7533E6BEBBCBEBBEEA5AF1BEA6
:104D2000CBE0F6BE275DFCBEE4E700BF3D9C03BFC1
:104D3000824B06BF9BF508BF6B9A0BBFDA390EBFDB
:104D4000CDD310BF2A6813BFD9F615BFC07F18BFD7
:104D5000C6021BBFD17F1DBFCBF61FBF996722BF05
:104D600025D224BF563627BF159429BF4AEB2BBF47
:104D7000DE3B2EBFBB8530BFC9C832BFF30435BF91
:104D8000233A37BF426839BF3B8F3BBFF9AE3DBFC7
:104D900067C73FBF70D841BF01E243BF03E445BFCF
:104DA00065DE47BF12D149BFF8BB4BBF029F4DBF65
:104DB000207A4FBF3D4D51BF491853BF31DB54BF1F
:104DC000E59556BF534858BF6AF259BF1A945BBF66
:104DD000532D5DBF05BE5EBF214660BF97C561BF55
:104DE0005A3C63BF59AA64BF880F66BFD86B67BFC0
:104DF0003CBF68BFA7096ABF0C4B6BBF5E836CBF2B
:104E000093B26DBF9ED86EBF73F56FBF080971BFB7
:104E1000521372BF471473BFDD0B74BF0BFA74BF1C
:104E2000C6DE75BF07BA76BFC58B77BFF85378BFAC
:104E3000981279BF9DC779BF02737ABFBE147BBF3A
:104E4000CDAC7BBF283B7CBFC9BF7CBFAC3A7DBF2C
:104E5000CCAB7DBF23137EBFB0707EBF6DC47EBF61
:104E6000580E7FBF6D4E7FBFAB847FBF0FB17FBF3A
:104E700097D37FBF43EC7FBF11FB7FBF000080BF94
:104E800011FB7FBF43EC7FBF97D37FBF0FB17FBFC5
:104E9000AB847FBF6D4E7FBF580E7FBF6DC47EBF9A
:104EA000B0707EBF23137EBFCCAB7DBFAC3A7DBF5D
:104EB000C9BF7CBF283B7CBFCDAC7BBFBE147BBFD2
:104EC00002737ABF9DC779BF981279BFF85378BF34
:104ED000C58B77BF07BA76BFC6DE75BF0BFA74BF46
:104EE000DD0B74BF471473BF521372BF080971BF43
:104EF00073F56FBF9ED86EBF93B26DBF5E836CBFFC
:104F00000C4B6BBFA7096ABF3CBF68BFD86B67BFBC
:104F1000880F66BF59AA64BF5A3C63BF97C561BF7B
:104F2000214660BF05BE5EBF532D5DBF1A945BBFB7
:104F30006AF259BF534858BFE59556BF31DB54BF9D
:104F4000491853BF3D4D51BF207A4FBF029F4DBFFF
:104F5000F8BB4BBF12D149BF65DE47BF03E445BF75
:104F600001E243BF70D841BF67C73FBFF9AE3DBF45
:104F70003B8F3BBF426839BF233A37BFF30435BF8D
:104F8000C9C832BFBB8530BFDE3B2EBF4AEB2BBF4B
:104F9000159429BF563627BF25D224BF996722BF53
:104FA000CBF61FBFD17F1DBFC6021BBFC07F18BF7E
:104FB000D9F615BF2A6813BFCDD310BFDA390EBF9B
:104FC0006B9A0BBF9BF508BF824B06BF3D9C03BF8E
:104FD000E4E700BF275DFCBECBE0F6BEEA5AF1BEB7
:104FE000BBCBEBBE7533E6BE4F92E0BE80E8DABEC7
:104FF0004136D5BECA7BCFBE53B9C9BE15EFC3BEBD
:10500000491DBEBE2A44B8BEEF63B2BED47CACBE5E
:10501000128FA6BEE59AA0BE86A09ABE32A094BE0C
:10502000229A8EBE938E88BEC07D82BECCCF78BEC3
:105030007F9A6CBE135C60BE011554BEC2C547BEEC
:10504000CF6E3BBEA2102FBEB5AB22BE834016BEB4
:1050500087CF09BE73B2FABD2FBCE1BD36BDC8BD56
:1050600080B6AFBD04A996BD752B7BBD2EFB48BD98
:105070002BC316BDB10AC9BC920E49BC000000800A
:10508000A85000000000202008020000F0440000AA
:10509000B052000008022020180A00000845000055
:1050A000CDD4FFFF0000000000000000EB44D43F1F
:1050B00003A3D03F0D64C93F6941C63F832AC03F67
:1050C0003BF9BC3F1087BB3FA9D6B83FBAC7B53F35
:1050D0001402B33FD444AF3F177BAD3F7964AB3F7D
:1050E0007D94A93F1E1DA83F54B9A43F927AA23FC8
:1050F0001BC0A13FEBE99E3F60F69C3F4DBC9B3F30
:1051000034629A3F16E1993FA260983F854C973FE1
:105110003A2B973FC451943FA372933F9E4B933FCA
:10512000C352973F70E9913F24BA923FCBA0913F81
:105130004A79913F0894903FFF32903F45E98D3F77
:10514000B4B28D3F72FD8B3F79378C3F1E168C3F7A
:10515000C11E8A3FD310893F30ED873FF0D6873F8D
:10516000F7A0863F253F853FF2E1823F0F43843F12
:1051700045CC833F19B2823FEB8E823FE2EB813F09
:10518000FAAF813FBF3C813FAF16813FBCBB803F40
:105190007CBC803FB18B803F4973803FC42D803FF2
:1051A000E72A803F3904803F4A0E803F2975803FBF
:1051B000CC7F803F2F4C803FB121803F0000803F5B
:1051C000895E803FBE16803F781B803F6870803FBD
:1051D0007897803F43A5803F9AE3803FEB7C803FF8
:1051E000F26D813FC6EC813FC72D823F10B1823FF7
:1051F000810D833F56B5823F775F833F92A7833F00
:105200009B93843F3BF9833F2A1F843F12D0843F06
:105210008721863FC80F873F0FD1873F9540883F42
:10522000ABB8893FF5F08A3F3BD18B3FAFAD8D3FA7
:10523000C5DB8E3F63A18E3F9FA68F3F5BE8903F0B
:10524000DA50923F42F8923F71BA963F144E973F20
:10525000DEF4983FACE3983FFA6A993FE67D993FC8
:1052600096409B3F619B9A3F8CE09B3F4E259D3F24
:10527000429E9E3FCDFA9F3FDBC5A13F4697A33F8D
:10528000915CA43F579BA63F8A1AA63FE0B8A73F70
:105290003409AA3F446AB13FFFBDB63FB3AEB33F46
:1052A00074ACB13F708FB53F798DB73F000040417E
:04000005000000C136
:00000001FF
