:020000040000FA
:10000000000C2020D9000000DD000000DF0000000F
:1000100000000000000000000000000000000000E0
:10002000000000000000000000000000E1000000EF
:100030000000000000000000E3000000512100006B
:10004000E7000000E7000000E7000000E700000014
:10005000E70000003D080000E7000000E7000000A6
:1000600000000000E7000000E700000000000000C2
:1000700000000000E7000000E7000000A9210000E8
:10008000E7000000E7000000E7000000E7000000D4
:10009000E7000000992100000000000000000000BF
:1000A000E7000000E7000000000000000000000082
:1000B000E700000000000000E7000000E70000008B
:1000C0000448854600F0A8FB00F038F800480047D7
:1000D000012C0000000C202003480047FEE7FEE74B
:1000E000FEE7FEE7FEE7FEE7C100000030B50B4685
:1000F000014600202022012409E00D46D5409D4202
:1001000005D31D469540491B254695404019154687
:10011000521E002DF1DC30BD03460B439B0703D07C
:1001200009E008C9121F08C0042AFAD203E00B78BC
:100130000370401C491C521EF9D2704770B5054C23
:10014000054D03E0206800198047241DAC42F9D119
:1001500070BD00003035000034350000F8B50246AF
:100160004A40D40F42004B0052085B089A4202D228
:100170000246084611464A0023D0C30D4A00DDB2AC
:10018000120EAD1A202D35DA49020126490AF6056C
:100190008A19002C00D0524220214F1B1146B94031
:1001A0002A411018C20D9A4221D0002C17D0012DDF
:1001B00008DCDA05801AD20F8019D207DBB200F012
:1001C00090FAF8BDDA05801A012340001B06C0181A
:1001D00080185A428018CA0F1043490007E04908A6
:1001E000C2071143DA05801A80194008801800F010
:1001F00070FAF8BD61000122511A001BF7E70122D5
:10020000D2075140AAE70122D2075040A6E7024692
:1002100070B54A40D30FDB0740002DD04A002AD0EA
:10022000010E140E000212020919400A520A841823
:10023000E50104465443000A120A2E045043A4194F
:100240004219200CC543AA18120C0125AD03521CFB
:10025000521912047F39240400D0521C104301D4D7
:100260004000491EC2B20C06C0092018401C4008BC
:10027000802A02D003E0002070BD40084000002921
:1002800000DA0020184370BD70B502464A40D50F11
:1002900040004A00ED0740085208002814D0002A08
:1002A00012D0C40DD30D41020120C0055202490AEB
:1002B000520AE41A091812187D34914201D3641CC1
:1002C00000E04900002C01DA002070BD00239142BB
:1002D00001D3891A0343400849000028F7D10029B7
:1002E0000AD0914202D10121C90705E0914201D211
:1002F000012101E00121C943E005C018401900F0C7
:10030000E8F970BDF0B507460846584087B0C00F01
:10031000049048000E46590040084908BC1A88411C
:1003200005D2384631461E4617460B46024658004F
:10033000400810434CD0300D039040055900400D4B
:10034000490D0590401A0290402872DA18030121E5
:10035000000B09050843019004980092002805D07D
:100360000199524200208841009201900298402158
:100370000A1A0199009800F078F905460C466B4678
:1003800007CB00F093F9C0197141039A0E0D0023B9
:10039000D71756401A467A40164344D0049A002A8A
:1003A0002DD0029A012A039A15DC1205C01A914138
:1003B00001263605001C7141D20F059ED20700931D
:1003C000019202962A46234600F0D1F907B0F0BD0B
:1003D00038463146FAE71605224A0F46B218C01AC7
:1003E000B74101210905001C4F4100187F4111460A
:1003F00018187941E20F10436D19644113E0E207C8
:100400006D0815436408C2071443039A01261205B8
:10041000C01A91413605001C7141CE074008304397
:100420004908C01851412A46234600F093F9CDE708
:10043000FFE7049801224000C117121A00238B41E4
:1004400004983146C417381AA141EEE730B40124AC
:10045000E407634030BC55E730B40124E407614051
:1004600030BC4FE70000E0FFF0B51FB488B00B9937
:100470000998002448400999C00F4900490809918A
:10048000C0070B990090490049080B9109990898F9
:10049000A64608431CD00B990A98084318D009981F
:1004A00001244000420D4800410D09982405000335
:1004B000000B204309900B980003000B20430B9086
:1004C00050181C494018002201901446104605E0BF
:1004D000002001460DB0F0BD032801DA034600E01C
:1004E00003239C46C11A0AAE0AE05F0008ADED5B2B
:1004F0004F00F75B7D430027AA187C41491C5B1E17
:100500006145F2DD410004AB5A522104120C0A434A
:10051000240C401C0828DFDB0198029000997046EB
:1005200001910090059B049A0799069800F01FF925
:10053000D0E700000DFCFFFF0122D207002800DBFE
:10054000101A002900DB511A814201D8012070479E
:10055000002070470122D207002800DB101A002972
:1005600000DB511A814201D2012070470020704700
:100570000122D207002800DB101A002900DB511AE3
:10058000814201D30120704700207047C217C10F7C
:10059000504010B54018CA079623002100F0A1F87A
:1005A00010BD10B500229623114600F09AF810BD38
:1005B000C20F410040020123400ADB05D207090EA9
:1005C000C0187F2901DA00207047962903DC9623A2
:1005D000591AC84001E096398840002AF4D04042B8
:1005E0007047410040020122400AD205090E8018DE
:1005F0007F2901DA00207047962903DC9622511AE0
:10060000C8407047963988407047C20FD2074000F3
:1006100040080BD0C10D0723DB01C91840020905B2
:10062000400A1143C20840071143704700200146A9
:100630007047CB0FDB07490010B5490802460A4353
:1006400007D00A0D07240903E401090B121B002A35
:1006500001DC002010BDC900440F0C43C100E018AC
:10066000D205801800F035F810BD10B5202A04DB43
:100670000146203A9140002010BD914020239C1A51
:100680000346E3401943904010BD10B5202A04DB17
:100690000846203AD040002110BD0B46D340D04040
:1006A0002024A21A91400843194610BD10B5202AF3
:1006B00006DBCB170846203A1041C1170B4306E072
:1006C0000B461341D0402024A21A914008431946FA
:1006D00010BD002904DA401C490001D14008400047
:1006E000704770B40024050C05D11024000402D119
:1006F000002921D01124050E01D100020834050F74
:1007000001D10001241D850F01D18000A41C002807
:1007100001DB4000641C002908D020252E1B0D465B
:10072000F540A14000D001212943084301061B1BCD
:10073000000ADB1D02D5002070BC7047DB051818CD
:1007400080180029F8DA401C4900F5D170BC400837
:100750004000704710B5002B08DA0024401C6141AE
:1007600092185B411A4301D14008400010BDF0B51A
:100770001FB482B005460C0003D0084602F048FAC8
:1007800002E002F045FA2030024600902146284659
:10079000FFF76BFF049B059A04460F46184311436D
:1007A000084314D0184610431BD0009840210A1A61
:1007B00018460599FFF769FF05460E46009A059908
:1007C0000498FFF752FF084305D0012004E02046BB
:1007D000394607B0F0BD0020C11705430E432C4336
:1007E000374300990E986305401A7905E40A002200
:1007F0000C43FD0A0A3002D500200146E9E7010555
:10080000101969410C9C0D9D00196941FFF7A2FF69
:10081000DFE7000000000000064C0125064E05E061
:10082000E36807CC2B430C3C98471034B442F7D311
:10083000FFF74AFC103500003035000080B50E4847
:1008400001F065FD062814D1FFE70C48002101F0F6
:100850003BFD094801F04DFD09482121C900012255
:100860004254084801F0FAFD07480168491C01603C
:1008700000E0FFE780BDC0460020004000A04240ED
:100880000C022020A003202000022020B0B584B05C
:100890000A4603460390029102980399034C0D59AE
:1008A00005430D510192009304B0B0BD4810000003
:1008B000F0B58EB0179C169D159E149F0990139845
:1008C000089018460790104606900846059009982B
:1008D000049009980D900CA801700B920A930B9943
:1008E0000A9A1143139A1143149A1143159A11430A
:1008F000169A1143179A11430D9A00788000101828
:100900002322D201815003940295019600970EB0E4
:10091000F0BD10B582B0014601900198112212027B
:100920008358012423438350009102B010BD00007E
:1009300010B582B00146019001987A4A835801248B
:10094000240223438350009102B010BDB0B584B09F
:100950000A4603460390029102980399034C0D59ED
:1009600005430D510192009304B0B0BD8810000002
:10097000B0B584B00A4603460390029102980399E9
:10098000034C0D5905430D510192009304B0B0BDC5
:100990002810000082B00146019001980122D20285
:1009A000024B8350009102B07047C0460100002600
:1009B000F0B58BB0119C109D1E4617460690084658
:1009C00005900698049006980A900991089207935A
:1009D0000A990C4A88180999089A1143079A1143F1
:1009E000094A039402950196009700F079F90A9854
:1009F0004C4940181099119A1143044A00F070F9BB
:100A00000BB0F0BD041100000100130007001F1F10
:100A100082B0014601900198024A034B8350009135
:100A200002B0704704080000030000B110B584B0A4
:100A30000A4603460390029103980F494018029911
:100A40000978A924240609190C4C01922246009326
:100A500000F0A4F80398112109024018029949688E
:100A60000722120600F09AF8029840780399ED4A9E
:100A7000885004B010BDC04608080000030000FF05
:100A800010B586B00A460346059004A80170059982
:100A9000244C09190078C0021F24E4020390084680
:100AA000039902922246019300F01AF906B010BD94
:100AB00010B584B00A4603460390029103981121B1
:100AC000090240180299012424040192224600934D
:100AD00000F006F904B010BD10B584B00A46034614
:100AE000039002A8018000880399034C08510192E9
:100AF000009304B010BDC0461411000010B584B0BE
:100B00000A46034603900291039806494018029949
:100B10001F24240401922246009300F0E1F804B05F
:100B200010BDC0460811000010B584B00A46034647
:100B3000039002A8017000780F2108400399012456
:100B4000A40208510192009304B010BDB0B586B064
:100B500013460C46054605900491039205980499A6
:100B600008430399084306490860029301940095DD
:100B700006B0B0BD02480068072108407047C04673
:100B80000013404083B0014602900298821E121F5B
:100B900000BFFCD20192009103B07047B0B587B09E
:100BA00013460C4605460690059104920698006887
:100BB0000390039804998843039003980599049A35
:100BC000114008430699086002930194009507B00C
:100BD000B0BDB0B587B013460C46054606900591EA
:100BE0000492069800680390039804998843039040
:100BF00003980599049A11400843069908600293E6
:100C00000194009507B0B0BDB0B587B013460C464F
:100C10000546069005910492069800680390039893
:100C200004998843039003980599049A1140084356
:100C30000699086002930194009507B0B0BDB0B565
:100C400087B013460C460546069005910492069817
:100C500000680390039804998843039003980599CA
:100C6000049A114008430699086002930194009584
:100C700007B0B0BDB0B587B013460C460546069028
:100C8000059104920698006803900398049988439C
:100C9000039003980599049A114008430699086047
:100CA00002930194009507B0B0BDB0B587B013466C
:100CB0000C4605460690059104920698006803903C
:100CC000039804998843039003980599049A114066
:100CD00008430699086002930194009507B0B0BDDF
:100CE000B0B587B013460C460546069005910492B0
:100CF000069800680390039804998843039003982A
:100D00000599049A114008430699086002930194DA
:100D1000009507B0B0BDF0B58DB0159C149D139E25
:100D2000129F0690184605901046049008460390BE
:100D30000698029006980C900BA801700A920993ED
:100D400008A90F8007AA16800A9B099E3343159EA7
:100D500036013343149E334312881201134309882A
:100D60000B430C99007800010818092149024350EF
:100D7000019400950DB0F0BDF0B591B013460C464E
:100D8000054610900FA801700E92109902780E9EE1
:100D900077680D90B0680C90B0890B90F0890A903C
:100DA0003069766909906846C660099E86600A9E29
:100DB00046600B9E0660084611463A460C9E089314
:100DC000334607940695FFF7A6FF10980D9909780A
:100DD0000E9A1378527805921A46059B00F002F895
:100DE00011B0F0BDF0B589B01C4615460E46074659
:100DF000089007A8017006A90A7005AA1370089B3D
:100E0000007880001818074BC01809781278114331
:100E1000BF220494039502960197FFF7DAFE09B00A
:100E2000F0BDC0461011000010B584B00A4603465C
:100E3000039002910298039995246401085101924C
:100E4000009304B010BD000010B584B00A460346FC
:100E50000390029102980399024C08510192009369
:100E600004B010BDD012000082B00146019001987C
:100E70000122D202344B8350009102B07047C04629
:100E800082B001460190019880001C4A8123835062
:100E9000009102B07047C04682B0014601900198AF
:100EA0008000164A00238350009102B07047C0466C
:100EB00010B584B00A460346039002910298054992
:100EC0000843039989000D4C08510192009304B026
:100ED00010BDC0468000040010B584B00A46034629
:100EE0000390029102988021084303998900034CE2
:100EF00008510192009304B010BDC04604804240E6
:100F000082B00146019001982D4A2E4B83500091EA
:100F100002B0704710B582B0014601900198224A94
:100F20008358012423438350009102B010BDC04672
:100F300082B00146019001980122D202024B8350F7
:100F4000009102B07047C04601000026B0B586B0DF
:100F50000A4603460590049105981121090240189C
:100F600004990C894D882C4389790C430D490391D0
:100F70002146039C029222460193FFF745FE059805
:100F80000949401804998A88CB791A4309780A4399
:100F90005D21890000911146009AFFF735FE06B0E9
:100FA000B0BDC0467F3300000411000082B001468E
:100FB00001900198024A034B8350009102B07047A0
:100FC00004080000030000B110B584B00A460346CF
:100FD000039002910398054940180299044C01922C
:100FE00022460093FFF77CFE04B010BD08110000FC
:100FF000FF03000010B584B00A4603460390029137
:10100000029800780399064C085102984078039999
:101010000124240308510192009304B010BDC0467E
:101020000410000070B588B013460C4605460790C2
:1010300006A8017005A90A70079A094E921900784E
:10104000097808433F2104901046049A0391114601
:10105000039A029301940095FFF742FE08B070BD19
:101060000C11000080B586B001460590039100F098
:1010700083F8FFE700F098F80121890308408842CF
:1010800001D0FFE7F6E70598417E2B480122029048
:101090000192FFF70AFE05982021415C27480322B0
:1010A0000090FFF702FEFFF765FD04900021042287
:1010B0000198FFF74BFD0598406A006820490860D9
:1010C0000598406A40681F49086004981E490860F6
:1010D0000598C0694006410C7F2002020098FFF786
:1010E000E4FD059801680907090B4268120392B2F2
:1010F000891882681207120D8918C26811430269A3
:10110000114342691143007E0143104A0298FFF7E0
:10111000CCFD52480168019A130219430160FFE7B0
:1011200000F042F8012149020840884201D0FFE75F
:10113000F6E706B080BDC04620010B4024010B40FD
:1011400028010B402C010B400013404072FF0F00A0
:101150005548016801221207914301607047C0465B
:101160003E48016801229143016070473B48016895
:101170000122914301607047384801680122120240
:10118000914301607047C046344801680122120251
:10119000914301607047C04643480168012212072D
:1011A000114301607047C046014800687047C0465F
:1011B00004020B4082B0014601AA10701078024A66
:1011C0001060009102B0704708030B4080B584B0F6
:1011D000014603AA108010880F2212025E4B029073
:1011E0001846029B01911946FFF77AFD04B080BDB5
:1011F00070B588B013460C46054607AE30800691A0
:1012000005A8027004930394029501960090FFF7DD
:10121000A7FF0198008800F023F8069800F032F844
:101220000E48016801221143016000980178C90746
:1012300000290DD0FFE7FFF7AFFFFFE7FFF7B4FF8F
:10124000012109020840884201D0FFE7F6E702E0E9
:10125000FFF77EFFFFE708B070BDC04608010B40F6
:1012600080B584B0014603AA1080108803221203BF
:101270000D4B02901846029B01911946FFF715FD90
:1012800004B080BD80B584B0014603900398064A3F
:10129000FF2302901046029A019111461A46FFF769
:1012A00004FD04B080BDC04610010B4082B0014671
:1012B00001AA10701078024A1060009102B07047C5
:1012C0000C010B4080B584B0014603AA1070107861
:1012D000054A032302901046029A019111461A46CC
:1012E000FFF7FEFC04B080BD00010B4080B584B068
:1012F000014603AA10701078174A30230290104656
:10130000029A019111461A46FFF7EAFC04B080BD2B
:1013100080B582B0014601AA107010780091FFF7E5
:10132000C5FFFFE7FFF740FF01214905084088425C
:1013300001D0FFE7F6E708480168012212041143D3
:101340000160FFE7FFF730FF10210840102801D0AF
:10135000FFE7F7E702B080BD04010B4080B58EB017
:101360000A4603460D900C910C984079C00700285E
:101370000992089360D0FFE70C9800790028079045
:1013800004D0FFE7079820280CD017E00D9888219B
:101390000222069100F072F90D980322069900F0DE
:1013A0006DF918E00D9897490222059100F066F951
:1013B0000D980322059900F061F90CE00D980521C4
:1013C000C9010222049100F059F90D9803220499F1
:1013D00000F054F9FFE70D98002102220391039BCE
:1013E00002921A46029B00F069F90D980321039AB4
:1013F00001911146019B00F061F90D986946029A2E
:101400000A600399039A039B00F0A0F90D986946BE
:10141000019A0A600399039A039B00F097F90D98CB
:101420000399039A029B00F06FF90D980399039AB0
:10143000019B00F069F9FFE70C9800680A900C988E
:1014400000790AA908710C98807948710D9800F00C
:101450004BF80EB080BDC04682B0014601900198A5
:10146000024A01238350009102B070470811000026
:1014700070B587B013460C460546069005A8017066
:1014800004920699074A891803910499039A0078EF
:10149000800016580E43165002930194009507B031
:1014A00070BDC04658100000B0B584B00A4603466F
:1014B0000390029102980399034C0D5905430D5175
:1014C0000192009304B0B0BD2810000082B0014624
:1014D000019001980122D202024B8350009102B088
:1014E0007047C0460100002680B58EB00A4603460C
:1014F0000D900C910C98007900280B920A9309909A
:1015000004D0FFE70998202812D02BE00D980C9901
:101510000968491E00F08EF90D9888210022089173
:1015200000F0ACF80D980122089900F0A7F82CE023
:101530000D980C990968491E00F07CF90D98314905
:101540000022079100F09AF80D980121079A069160
:101550001146069A00F092F80D980699490700F096
:1015600053F912E00D980C990968490800F062F9E6
:101570000D980521C9010022059100F07FF80D9812
:101580000122059900F07AF8FFE70D9800210491F7
:10159000049A049B00F092F80D980121049A03919B
:1015A0001146039B00F08AF80D986946049A0A6078
:1015B0001146049B00F0CAF80D986946039A0A6028
:1015C0000499049A049B00F0C1F80D980499049AB8
:1015D000049B00F099F80D980499049A039B00F07D
:1015E00093F80D98924940180C990A7949790A4361
:1015F00002210A43044902911146029AFFF71FFB98
:101600000EB080BD01040000BFFF003082B0014673
:1016100001900198D74AD84B8350009102B070478F
:1016200010B584B00A4603460390029102980399CC
:101630001124240208510192009304B010BD00004F
:10164000B0B588B013460C4605460790069105A82C
:10165000027007992A4A8918049100780499800039
:1016600008180490049806990722920403930294A0
:101670000195FFF7E4FA08B0B0BDC046B0B588B038
:1016800013460C4605460790069105A80270079977
:10169000084A891804910078049980000818049079
:1016A00004980699044A039302940195FFF7C7FA38
:1016B00008B0B0BD70180000DBB6C1FFF0B589B04E
:1016C0001C4615460E46074608900791069205A847
:1016D000037008990A4A89180491007804998000D7
:1016E0000818049004980799069A1143054A039430
:1016F000029501960097FFF7A2FA09B0F0BDC04627
:101700003018000077770200F0B589B01C46154606
:101710000E46074608900791069205A8037008999F
:101720003122D201891804910078049980000818A8
:10173000049004980799069A11438F220394029506
:1017400001960097FFF77BFA09B0F0BDF0B58BB0BA
:10175000109C1D4616460F460490039004980A906C
:1017600009910892079306A90C700A9A094BD2189E
:1017700005920978059A8900511805910999089AE6
:101780001143079A1143059A11600295019600973B
:101790000BB0F0BD50180000B0B587B013460C4632
:1017A00005460690059104A802700699074A891813
:1017B0000391007803998000081803900598039915
:1017C000086002930194009507B0B0BD10180000A6
:1017D00010B584B00A46034603900291029800783F
:1017E00003998A4C085102984078039901242403F4
:1017F0000851029880780399024C08510192009395
:1018000004B010BD0C11000010B584B00A460346A8
:101810000390029103980649401802990324240773
:10182000019222460093FFF70AFA04B010BDC046A9
:101830000418000010B584B00A46034603900291D4
:1018400002980399024C08510192009304B010BD14
:101850000818000070B587B013460C460546069080
:1018600005A8017004A90A70069A074E92190392FE
:1018700009780F221140039A0078800011500293DA
:101880000194009507B070BD4404000010B582B00B
:101890000146019001981122120283580124A343AA
:1018A0008350009102B010BD10B582B00146019086
:1018B000019811221202835801242343835000917E
:1018C00002B010BDB0B584B00A4603460390029141
:1018D00002980399034C0D5905430D510192009351
:1018E00004B0B0BD2810000082B0014601900198FC
:1018F0000122D202024B8350009102B07047C046D1
:101900000100002680B586B00A4603460590049182
:10191000059803920293FFF7B9FF05981121090278
:10192000401804990A888B781A4389880A430B491E
:1019300001911146019AFFF79DF905982749401832
:1019400004998A79CB791A43097A0A437E21009156
:101950001146009AFFF78EF906B080BD18670200A5
:1019600082B0014601900198024A034B83500091D6
:1019700002B0704704080000030000B1B0B588B0A1
:1019800013460C46054607900691059207981049A4
:10199000401806990F4A049303940295FFF7A0F9A3
:1019A00007980D49401805993F22FFF799F90798C4
:1019B0000A49421840580121084001901046019AF6
:1019C00000911146009AFFF78BF908B0B0BDC046F0
:1019D00010110000FFFF00001411000004110000AE
:1019E00010B584B00A46034603900291029800782D
:1019F0000399064C08510298407803990124240366
:101A000008510192009304B010BDC04608100000B8
:101A100010B584B00A460346039002910398112141
:101A20000902401802990324E4030192224600931C
:101A3000FFF756F904B010BD80B58AB0284929488F
:101A40000990FEF7F3FF6846002141600160012024
:101A50004204099B0890184607911146079A089B73
:101A6000FEF7A6FF684607990161089A1306C3604E
:101A70008160416001600998079A079BFEF718FF93
:101A8000089801040998FFF713F8022009990690B5
:101A900008460699FFF720F80998FEF749FF0998CC
:101AA0000899FEF7EDFF089801020998FEF74EFF2E
:101AB00009980899FFF738F82020099905900846F9
:101AC0000599FEF7E3FE09980599FEF751FF0520F9
:101AD000069900F0BFFE0998FEF71BFF0AB080BD13
:101AE000682C00000020004080B58AB01449012015
:101AF0008207099010460892FEF798FF09980104A2
:101B000008980791FEF7FAFF684600210161C1605D
:101B100081604160016004220898099B0691194682
:101B2000069BFEF7C5FE08980799FEF7C1FF022144
:101B30000898FEF7D1FF0898FEF7EBFE0AB080BDCB
:101B4000702C000080B5034A03480021FFF714F908
:101B500080BDC046782C000000A0424080B5FFF751
:101B6000F1FF80BD80B58CB009200B90FFF794F990
:101B70000A20FFF791F92F2004210A91FFF7ACF911
:101B800001200105414A099010460892FFF75CF9CF
:101B9000022007900A99FFF79FF9099801073C4A2C
:101BA00010460692FFF750F9052005900599FFF7BA
:101BB00093F90998C1070698FFF746F91020049099
:101BC0000A99FFF789F908980499FFF73DF90C2065
:101BD0000A99FFF781F908980799FFF735F922204C
:101BE0000599FFF779F9099841030698FFF72CF951
:101BF00000200799FFF770F909980799FFF758F93E
:101C0000262003210391FFF767F927200399FFF7A7
:101C100063F930200799FFF74BF921200399FFF76B
:101C20005BF923200399FFF757F92C200399FFF75D
:101C30003FF91F20FFF724F92B20FFF721F931206E
:101C4000FFF71EF93820FFF71BF93920FFF718F9C5
:101C50003B20FFF715F93520FFF712F90B98010625
:101C600006980291FFF7E0F806980299FFF7ECF862
:101C700008480899019008460199FFF7D5F8089897
:101C80000199FFF7E1F80CB080BDC04600200A4082
:101C900000000A400080440C80B584B01449154807
:101CA0000390FFF795FD14490398FFF71DFC684664
:101CB000012101600020039A02901046029B0191CD
:101CC00019461A46FFF742FD03980299019AFFF759
:101CD000B7FC0A490398019AFFF75EFD0398FFF7E6
:101CE000BBFB02210398FFF79BFC04B080BDC046FC
:101CF000902C000000400840942C0000C409000013
:101D000080B586B01F49F6480590FFF761FD1E4972
:101D10000598FFF723FB6846022101600020059A21
:101D200004901046049B039119461A46FFF70EFDD6
:101D300005980499039AFFF783FC354805990290AA
:101D400008460299039AFFF727FD684603210160C0
:101D50000598049A01911146049BFFF7F7FC05983A
:101D60000499019AFFF76CFC05980299019AFFF714
:101D700013FD0598FFF770FB0C210598FFF750FC49
:101D800006B080BD9C2C0000A02C000080B586B061
:101D90001D49D5480590FFF71BFD1C490598FFF725
:101DA000DDFA68460021016005980491049A049BBD
:101DB000FFF7CCFC05980499049AFFF741FC1448FE
:101DC0000599039008460399049AFFF7E5FC6846D5
:101DD000012101600598049A02911146049BFFF7C6
:101DE000B5FC05980499029AFFF72AFC0598039917
:101DF000029AFFF7D1FC0598FFF72EFB0321059807
:101E0000FFF70EFC06B080BDA82C0000AC2C000033
:101E10008813000080B582B00B49B6480190FFF7E7
:101E2000E9F80A490198FFF791F809210198FFF7AD
:101E3000CBF8102102220198FFF7F4F80198FFF780
:101E400069F802B080BDC046B42C0000B62C00007A
:101E500080B582B00B49A6480190FFF7CBF80A493C
:101E60000198FFF773F809210198FFF7ADF81021E9
:101E700002220198FFF7D6F80198FFF74BF802B05D
:101E800080BDC046C02C0000C22C000080B582B0CE
:101E900000200190FFF78EF901204002FFF796F92C
:101EA0000198FFF70FFAFFF761F9FFF76DF90320CB
:101EB00000030199019AFFF79BF90548FFF7D2F853
:101EC0001020FFF713FA0198FFF722FA02B080BD45
:101ED000CC2C000080B582B0054800F00FF900213D
:101EE000CA430190104600F0B5FC02B080BDC04668
:101EF0008038010080B584B01E497A480390FFF70E
:101F000067FC1D490398FFF7EFFA6846012101605D
:101F10000020039A02901046029B019119461A462E
:101F2000FFF714FC03980299019AFFF789FB05203B
:101F300081010398019AFFF72FFC0398FFF78CFAB1
:101F40000198020203980299FFF792FA0398029906
:101F5000019AFFF77FFC019841020398FFF7A4FA6A
:101F60001520029900F076FC02210398FFF758FB38
:101F700004B080BDF42C0000F82C000080B582B0C5
:101F80001049B1480190FFF72BFD0F490198FFF769
:101F9000B9FC00210198FFF73BFD412081001B2285
:101FA0000198FFF7EBFC012081020198FFF78AFC02
:101FB0000F20022100F04EFC0198FFF775FC02B0E3
:101FC00080BDC046002D0000022D000080B500F04D
:101FD0002FF8FFF7C7FDFFF759FFFFF77BFFFFF76C
:101FE0008FFEFFF787FFFFF7D1FEFFF755FEFFF7E4
:101FF000C5FFFFF72DFFFFF70DFFFFF71DFDFFF7F3
:1020000073FDFFF7ABFD0648B82100224254054896
:1020100042540548242142540448425480BDC046DD
:10202000C80620208407202068082020400820209F
:1020300080B58CB029480B90FEF762FF55480A9096
:10204000FEF75EFF26480990FFF7E0FA2548089062
:10205000FFF7DCFA24480790FFF7D8FA23480690E8
:10206000FFF7D4FA78480590FFF77AFC20480490EF
:10207000FEF79CFF1F480390FEF798FF1E48029052
:10208000FEF7C6FC012080070190FEF7C1FC0B980B
:10209000FEF7EAFE0A98FEF7E7FE0998FFF716FA40
:1020A0000898FFF713FA0798FFF710FA0698FFF75A
:1020B0000DFA0598FFF718FC0498FEF739FF03980E
:1020C000FEF736FF0298FEF765FC0198FEF762FC0A
:1020D0001020FEF757FD0CB080BDC04600000A403E
:1020E00000008640000087400020864000400840F5
:1020F00000A04640008046400020004080B584B0EB
:10210000014602900298401E000E0028019103D063
:10211000FFE70120039013E00298401E0A4908607F
:102120000020C143032200900846114600F092FBB4
:102130000648009901601548072202600391FFE7F5
:10214000039804B080BDC04614E000E018E000E051
:1021500080B582B00D4801680122120491430160EC
:102160000B480168491C016000687D218900FDF76A
:10217000BDFF0029019006D1FFE701208105054838
:1021800000F086F8FFE702B080BDC04610E000E036
:10219000FC0A202000200A4002480168491C016016
:1021A0007047C0460402202010B584B0254801685D
:1021B000491C0160244800F07BF824490A88244B1C
:1021C00098540888185C03AA10700888401C08807E
:1021D0000888642804DBFFE71C4800210180FFE732
:1021E00003A800780D2804D1FFE71A4801210160F7
:1021F00025E003A800780A2820D1FFE715480068E9
:10220000012816D1FFE71148028813498B1C104C96
:102210000290184601912146FDF77EFF02990A8837
:10222000CA23019CE2520B4A002313600B800090EA
:1022300003E0084800210160FFE7FFE7FFE704B083
:1022400010BDC0468C0A202000801040F40A2020D7
:10225000900A2020F80A20207009202080B500F084
:102260003FFB00F04FFB00F069FB00F075FB00F056
:1022700089FB00F0A1FB00F0A5FB00F0ADFB00F036
:10228000B1FB00F0B9FB00F049FB00F04FFB80BD53
:1022900010B584B00A460346039002910298039950
:1022A000024C08510192009304B010BDB01200001E
:1022B00082B0014601900198024A8058C0B2009154
:1022C00002B0704724110000B0B584B00A4603463E
:1022D000039002A8017003990078000108180921F1
:1022E000490244580225AC4344500192009304B083
:1022F000B0BD10B582B001460190019811221202C2
:1023000083580124A3438350009102B010BD82B0D2
:10231000014601900198812252018058C0B200917B
:1023200002B0704710B584B00A460346039002918C
:10233000039800210171416181610A4CC4627F24CC
:10234000E40504634463194C8463C1630164446419
:1023500084644C240155029901600192009304B0F9
:1023600010BDC0460AD7A33B84B00A46034603907B
:102370000291039800210171816001610849416166
:10238000084981610849C1610849016241620299B5
:10239000016002994831C1600192009304B0704716
:1023A0006F12833ACDCC0C3E000080BFCDCCCC3D2B
:1023B00082B00146019001980A22026041229200F7
:1023C000002383502122D20083541922120183500A
:1023D000009102B0704782B001460190019800223E
:1023E000C26102624262826242638263C2630264C9
:1023F00042648264C264009102B0704782B00146B8
:102400000190019800220270428042608260009137
:1024100002B0704784B00A460346039002910398C5
:10242000029901600192009304B0704710B584B026
:102430000A46034603900291039800210170CA24C2
:102440000153CC240151D0240151D42401510299CB
:10245000D82401510192009304B010BD80B59AB008
:102460000146199019980022189211911090FFE7D7
:1024700018987F2819DCFFE710980169189A530013
:10248000C91888880F92FEF78CF80F998A00A34B21
:1024900099580E92FDF7BBFE10990E9A8B1858654D
:1024A000FFE71898401C1890E2E795481790002025
:1024B00016901890FFE718987F282ADCFFE71898F5
:1024C000800010990818406D1699FEF735F800281D
:1024D00007D1FFE71898800010990818406D1690F2
:1024E00012E01898800010990818406D1799FEF7AF
:1024F0003FF8002807D1FFE71898800010990818C6
:10250000406D1790FFE7FFE7FFE71898401C189011
:10251000D1E716981799FDF772FE7A49FEF70CF885
:1025200000280DD1FFE716981799FDF717FE012136
:102530008907FDF7A9FEB5218900109A505005E0E2
:10254000B52080000021109A1150FFE7002018905C
:10255000FFE718987F2822DCFFE718988000109981
:102560000818406DB52292008958FDF7E5FF002854
:1025700008D1FFE7189810990818952292000123B6
:10258000835407E0189810990818952292000023A8
:102590008354FFE7FFE71898401C1890D9E7002004
:1025A0001590149003201890FFE718987C2816DCEB
:1025B000FFE718981099081895229200805C00286F
:1025C00008D1FFE71498401C149018981599081822
:1025D0001590FFE7FFE71898401C1890E5E714985E
:1025E000022805D8FFE744200021109A115433E057
:1025F00044200121109A1154906CFEF706F8424ACB
:10260000424BFDF731FF159A0D9010460C91FDF7E6
:10261000C8FF14990B900846FDF7C3FF0B990A9069
:1026200008460A99FDF730FE3949FDF797FDFDF799
:10263000ECFF384A384BFDF717FF0D9A099010460A
:102640000C9B08911946099A089BFDF75BFEFDF764
:10265000F0FF10998864FFE744201099085CC007D8
:1026600000284AD0FFE70020139012901098006ACB
:1026700012A913AA00F0DCF91098C06A1099CA6B6D
:10268000139907901046FDF7C2FD0799069008467A
:102690000699FDF763FD10998A6C096C0590104648
:1026A000FDF7B5FD1299FDF7B2FD059904900846B6
:1026B0000499FDF753FD1099C864086BCA6B129911
:1026C00003901046FDF7A3FD039902900846029976
:1026D000FDF744FD10998A6C096C01901046FDF7D6
:1026E00096FD1399FDF793FD019900900846009916
:1026F000FDF785FD10990865FFE71AB080BDC0465B
:1027000000803B4500002F44CDCCCCCCCCCCEC3F62
:10271000000080C29A9999999999B93F00002020A8
:10272000F0B58BB0119C109D1E46174606900846CA
:1027300005900698049006980A90099108920793CC
:102740000A9900228A61CA610A624A628A62CA627E
:102750000A634A638A630D4BCB630D4B0B644423BE
:10276000CA548A64CA640A65099A4A60089A8A60E7
:10277000079ACA60109A0A61119A4A61084603943E
:102780000295019600970BB0F0BDC0465839B43D94
:102790000F506E3A84B00A460346039002910398A4
:1027A000002141600160C160016101750299816091
:1027B0000192009304B07047F0B58AB00F9C1D469B
:1027C00016460F46059004900598099008910792C7
:1027D0000693099900220A62069A4A600F9A8A6053
:1027E000079A0A60089ACA600846039402950196FF
:1027F00000970AB0F0BDF0B58DB0149C139D129EE9
:102800001F460890104607900846069008980590C5
:1028100008980C900B910AA90A7009A90B700C99E1
:10282000084604940395029601970091FFF7E6FD90
:102830000020009908620B9888610A980877099827
:1028400048771298C8601398086114984861084640
:102850000DB0F0BD70B584B00A46034603AC2070DD
:102860000291207840B200280192009317DBFFE725
:1028700003A8017849B20322D2431140174BC9582B
:10288000007840B28407E40EFF25A540A943029DCD
:10289000AD01EDB2A54029431040C1501AE003A894
:1028A00001780F22114008390323DB4319400A4CF9
:1028B0000959007840B28507ED0EFF26AE40B143BE
:1028C000029EB601F6B2AE403143104008381840BF
:1028D0000151FFE704B070BD1CED00E000E400E032
:1028E00080B582B0684601210A0602601948CB060D
:1028F0000249034AFFF760FF02B080BD00804640F6
:1029000000000A4080B582B012481030284901907A
:1029100008460199FFF73EFF02B080BD80B502482E
:102920003F49FFF7FFFC80BD7806202080B50248B4
:102930003B49FFF719FD80BD4409202080B582B0D6
:10294000044814300D49019008460199FFF722FF11
:1029500002B080BD1C09202080B584B068461249B1
:10296000816012494160054901602F4804490322F2
:102970000223FFF740FF04B080BDC046500A20206C
:102980000000864080B584B06846074981600749E9
:102990004160074901602348064900220123FFF7EF
:1029A0002AFF04B080BDC046E8DC873C0040834578
:1029B000E00820200020864080B51848FFF7F8FC8A
:1029C00080BDC04680B502480249FFF72FFD80BD9B
:1029D000700920200080104080B51448FFF7FBFCF0
:1029E00080BDC04680B502480249FFF713FD80BD97
:1029F000080220200040084080B582B068460649A1
:102A000041600649016006480649074A074BFFF73F
:102A100087FE02B080BDC0466666E63D0C022020FF
:102A2000A0032020F8082020680A202090082020F9
:102A3000F0B589B00392059104906C49FDF7E7FB6E
:102A400004460120C007079084432046FDF7B0FDEF
:102A5000FDF79CFD01462046FDF7D1FB11218906BB
:102A6000FDF7D5FB0090FDF7BCFD04468030C005A6
:102A7000400D5F4D29580891281840680290FDF7D5
:102A8000BEFB06465B4F2740BC00281941680691F3
:102A90000798FDF7B4FB2D592946FDF7B0FB5649C1
:102AA000FDF7B5FB044630463146FDF757FB0146BE
:102AB0002046FDF7A4FB04463846FDF772FD0146AB
:102AC0000098FDF79CFB00902146FDF7A0FB044613
:102AD0004A493046FDF79BFB06462F4628462946C5
:102AE000FDF73CFB01460698FDF738FB424D2946B1
:102AF000FDF78DFB01463046FDF730FB2146FDF723
:102B00002DFB0146009E3046FDF781FB044638460A
:102B100001972946FDF77BFB01462046FDF76FFB39
:102B200001463046FDF773FB0146089C2046FDF741
:102B300015FB0399086006983946FDF760FB0746C8
:102B40002046029D2946FDF709FB2B49FDF75FFB57
:102B5000044638463946FDF701FB01462046FDF79D
:102B60004EFB014634463046FDF751FB06463846DB
:102B70002249FDF74CFB074608980146FDF7EEFA9F
:102B800001462846FDF7EAFA1B4D2946FDF73FFBB3
:102B900001463846FDF733FB3146FDF7DFFA0146C3
:102BA00026462046FDF733FB044608982946FDF7E4
:102BB0002EFB2146FDF7D2FA01463046FDF727FBF2
:102BC00001460198FDF7CAFA044607982146FDF729
:102BD00016FB054600210498FDF7BCFC002800D137
:102BE00025460598056009B0F0BDC046610B363B2F
:102BF0000C2D0000FF010000DB0F493C00004040AD
:102C000080B582B000200190FFF7E0F9FFE7FEE712
:102C10002021020C01D010211046020A01D01046DA
:102C20000839020901D01046091F820801D0104658
:102C3000891E420801D0881E7047081A704700009C
:102C400002E008C8121F08C1002AFAD1704700002C
:102C50007047000000000000002001E001C1121FC9
:102C6000002AFBD1704700000105000000000000B1
:102C70000105000000000000180000000000000036
:102C8000000000000001000100000000000003003F
:102C90000807000088130000200000000800000062
:102CA00088130000200100000800000088130000C5
:102CB00020010000080004000000000007100000D0
:102CC00008000400000100000710000001000000DF
:102CD00000000000000000000000000000000000F4
:102CE00010000000000100000700000001000000CB
:102CF0002C00C441080000008002000020000000F9
:102D00000800000018000000003000000000000073
:102D1000920E493CB10AC93C2BC3163D2EFB483DDF
:102D2000752B7B3D04A9963D80B6AF3D36BDC83DB1
:102D30002FBCE13D73B2FA3D87CF093E8340163E7A
:102D4000B5AB223EA2102F3ECF6E3B3EC2C5473EE2
:102D50000115543E135C603E7F9A6C3ECCCF783EAA
:102D6000C07D823E938E883E229A8E3E32A0943E53
:102D700086A09A3EE59AA03E128FA63ED47CAC3E39
:102D8000EF63B23E2A44B83E491DBE3E15EFC33E36
:102D900053B9C93ECA7BCF3E4136D53E80E8DA3EC4
:102DA0004F92E03E7533E63EBBCBEB3EEA5AF13E36
:102DB000CBE0F63E275DFC3EE4E7003F3D9C033F51
:102DC000824B063F9BF5083F6B9A0B3FDA390E3F6B
:102DD000CDD3103F2A68133FD9F6153FC07F183F67
:102DE000C6021B3FD17F1D3FCBF61F3F9967223F95
:102DF00025D2243F5636273F1594293F4AEB2B3FD7
:102E0000DE3B2E3FBB85303FC9C8323FF304353F20
:102E1000233A373F4268393F3B8F3B3FF9AE3D3F56
:102E200067C73F3F70D8413F01E2433F03E4453F5E
:102E300065DE473F12D1493FF8BB4B3F029F4D3FF4
:102E4000207A4F3F3D4D513F4918533F31DB543FAE
:102E5000E595563F5348583F6AF2593F1A945B3FF5
:102E6000532D5D3F05BE5E3F2146603F97C5613FE4
:102E70005A3C633F59AA643F880F663FD86B673F4F
:102E80003CBF683FA7096A3F0C4B6B3F5E836C3FBA
:102E900093B26D3F9ED86E3F73F56F3F0809713F47
:102EA0005213723F4714733FDD0B743F0BFA743FAC
:102EB000C6DE753F07BA763FC58B773FF853783F3C
:102EC0009812793F9DC7793F02737A3FBE147B3FCA
:102ED000CDAC7B3F283B7C3FC9BF7C3FAC3A7D3FBC
:102EE000CCAB7D3F23137E3FB0707E3F6DC47E3FF1
:102EF000580E7F3F6D4E7F3FAB847F3F0FB17F3FCA
:102F000097D37F3F43EC7F3F11FB7F3F0000803F23
:102F100011FB7F3F43EC7F3F97D37F3F0FB17F3F54
:102F2000AB847F3F6D4E7F3F580E7F3F6DC47E3F29
:102F3000B0707E3F23137E3FCCAB7D3FAC3A7D3FEC
:102F4000C9BF7C3F283B7C3FCDAC7B3FBE147B3F61
:102F500002737A3F9DC7793F9812793FF853783FC3
:102F6000C58B773F07BA763FC6DE753F0BFA743FD5
:102F7000DD0B743F4714733F5213723F0809713FD2
:102F800073F56F3F9ED86E3F93B26D3F5E836C3F8B
:102F90000C4B6B3FA7096A3F3CBF683FD86B673F4C
:102FA000880F663F59AA643F5A3C633F97C5613F0B
:102FB0002146603F05BE5E3F532D5D3F1A945B3F47
:102FC0006AF2593F5348583FE595563F31DB543F2D
:102FD0004918533F3D4D513F207A4F3F029F4D3F8F
:102FE000F8BB4B3F12D1493F65DE473F03E4453F05
:102FF00001E2433F70D8413F67C73F3FF9AE3D3FD5
:103000003B8F3B3F4268393F233A373FF304353F1C
:10301000C9C8323FBB85303FDE3B2E3F4AEB2B3FDA
:103020001594293F5636273F25D2243F9967223FE2
:10303000CBF61F3FD17F1D3FC6021B3FC07F183F0D
:10304000D9F6153F2A68133FCDD3103FDA390E3F2A
:103050006B9A0B3F9BF5083F824B063F3D9C033F1D
:10306000E4E7003F275DFC3ECBE0F63EEA5AF13E46
:10307000BBCBEB3E7533E63E4F92E03E80E8DA3E56
:103080004136D53ECA7BCF3E53B9C93E15EFC33E4C
:10309000491DBE3E2A44B83EEF63B23ED47CAC3EEE
:1030A000128FA63EE59AA03E86A09A3E32A0943E9C
:1030B000229A8E3E938E883EC07D823ECCCF783E53
:1030C0007F9A6C3E135C603E0115543EC2C5473E7C
:1030D000CF6E3B3EA2102F3EB5AB223E8340163E44
:1030E00087CF093E73B2FA3D2FBCE13D36BDC83DE6
:1030F00080B6AF3D04A9963D752B7B3D2EFB483D28
:103100002BC3163DB10AC93C920E493C0000000099
:10311000920E49BCB10AC9BC2BC316BD2EFB48BDDB
:10312000752B7BBD04A996BD80B6AFBD36BDC8BDAD
:103130002FBCE1BD73B2FABD87CF09BE834016BE76
:10314000B5AB22BEA2102FBECF6E3BBEC2C547BEDE
:10315000011554BE135C60BE7F9A6CBECCCF78BEA6
:10316000C07D82BE938E88BE229A8EBE32A094BE4F
:1031700086A09ABEE59AA0BE128FA6BED47CACBE35
:10318000EF63B2BE2A44B8BE491DBEBE15EFC3BE32
:1031900053B9C9BECA7BCFBE4136D5BE80E8DABEC0
:1031A0004F92E0BE7533E6BEBBCBEBBEEA5AF1BE32
:1031B000CBE0F6BE275DFCBEE4E700BF3D9C03BF4D
:1031C000824B06BF9BF508BF6B9A0BBFDA390EBF67
:1031D000CDD310BF2A6813BFD9F615BFC07F18BF63
:1031E000C6021BBFD17F1DBFCBF61FBF996722BF91
:1031F00025D224BF563627BF159429BF4AEB2BBFD3
:10320000DE3B2EBFBB8530BFC9C832BFF30435BF1C
:10321000233A37BF426839BF3B8F3BBFF9AE3DBF52
:1032200067C73FBF70D841BF01E243BF03E445BF5A
:1032300065DE47BF12D149BFF8BB4BBF029F4DBFF0
:10324000207A4FBF3D4D51BF491853BF31DB54BFAA
:10325000E59556BF534858BF6AF259BF1A945BBFF1
:10326000532D5DBF05BE5EBF214660BF97C561BFE0
:103270005A3C63BF59AA64BF880F66BFD86B67BF4B
:103280003CBF68BFA7096ABF0C4B6BBF5E836CBFB6
:1032900093B26DBF9ED86EBF73F56FBF080971BF43
:1032A000521372BF471473BFDD0B74BF0BFA74BFA8
:1032B000C6DE75BF07BA76BFC58B77BFF85378BF38
:1032C000981279BF9DC779BF02737ABFBE147BBFC6
:1032D000CDAC7BBF283B7CBFC9BF7CBFAC3A7DBFB8
:1032E000CCAB7DBF23137EBFB0707EBF6DC47EBFED
:1032F000580E7FBF6D4E7FBFAB847FBF0FB17FBFC6
:1033000097D37FBF43EC7FBF11FB7FBF000080BF1F
:1033100011FB7FBF43EC7FBF97D37FBF0FB17FBF50
:10332000AB847FBF6D4E7FBF580E7FBF6DC47EBF25
:10333000B0707EBF23137EBFCCAB7DBFAC3A7DBFE8
:10334000C9BF7CBF283B7CBFCDAC7BBFBE147BBF5D
:1033500002737ABF9DC779BF981279BFF85378BFBF
:10336000C58B77BF07BA76BFC6DE75BF0BFA74BFD1
:10337000DD0B74BF471473BF521372BF080971BFCE
:1033800073F56FBF9ED86EBF93B26DBF5E836CBF87
:103390000C4B6BBFA7096ABF3CBF68BFD86B67BF48
:1033A000880F66BF59AA64BF5A3C63BF97C561BF07
:1033B000214660BF05BE5EBF532D5DBF1A945BBF43
:1033C0006AF259BF534858BFE59556BF31DB54BF29
:1033D000491853BF3D4D51BF207A4FBF029F4DBF8B
:1033E000F8BB4BBF12D149BF65DE47BF03E445BF01
:1033F00001E243BF70D841BF67C73FBFF9AE3DBFD1
:103400003B8F3BBF426839BF233A37BFF30435BF18
:10341000C9C832BFBB8530BFDE3B2EBF4AEB2BBFD6
:10342000159429BF563627BF25D224BF996722BFDE
:10343000CBF61FBFD17F1DBFC6021BBFC07F18BF09
:10344000D9F615BF2A6813BFCDD310BFDA390EBF26
:103450006B9A0BBF9BF508BF824B06BF3D9C03BF19
:10346000E4E700BF275DFCBECBE0F6BEEA5AF1BE42
:10347000BBCBEBBE7533E6BE4F92E0BE80E8DABE52
:103480004136D5BECA7BCFBE53B9C9BE15EFC3BE48
:10349000491DBEBE2A44B8BEEF63B2BED47CACBEEA
:1034A000128FA6BEE59AA0BE86A09ABE32A094BE98
:1034B000229A8EBE938E88BEC07D82BECCCF78BE4F
:1034C0007F9A6CBE135C60BE011554BEC2C547BE78
:1034D000CF6E3BBEA2102FBEB5AB22BE834016BE40
:1034E00087CF09BE73B2FABD2FBCE1BD36BDC8BDE2
:1034F00080B6AFBD04A996BD752B7BBD2EFB48BD24
:103500002BC316BDB10AC9BC920E49BC0000008095
:10351000383500000000202000020000402C000090
:103520003837000000022020000A0000582C00005C
:103530002DEDFFFF00000000EB44D43F03A3D03F7C
:103540000D64C93F6941C63F832AC03F3BF9BC3F78
:103550001087BB3FA9D6B83FBAC7B53F1402B33FE7
:10356000D444AF3F177BAD3F7964AB3F7D94A93F17
:103570001E1DA83F54B9A43F927AA23F1BC0A13F91
:10358000EBE99E3F60F69C3F4DBC9B3F34629A3F07
:1035900016E1993FA260983F854C973F3A2B973FA1
:1035A000C451943FA372933F9E4B933FC352973FA6
:1035B00070E9913F24BA923FCBA0913F4A79913F65
:1035C0000894903FFF32903F45E98D3FB4B28D3F64
:1035D00072FD8B3F79378C3F1E168C3FC11E8A3F90
:1035E000D310893F30ED873FF0D6873FF7A0863F65
:1035F000253F853FF2E1823F0F43843F45CC833F27
:1036000019B2823FEB8E823FE2EB813FFAAF813FFE
:10361000BF3C813FAF16813FBCBB803F7CBC803F3D
:10362000B18B803F4973803FC42D803FE72A803FA4
:103630003904803F4A0E803F2975803FCC7F803F10
:103640002F4C803FB121803F0000803F895E803F4A
:10365000BE16803F781B803F6870803F7897803F20
:1036600043A5803F9AE3803FEB7C803FF26D813F32
:10367000C6EC813FC72D823F10B1823F810D833F51
:1036800056B5823F775F833F92A7833F9B93843FEA
:103690003BF9833F2A1F843F12D0843F8721863F16
:1036A000C80F873F0FD1873F9540883FABB8893F10
:1036B000F5F08A3F3BD18B3FAFAD8D3FC5DB8E3FF1
:1036C00063A18E3F9FA68F3F5BE8903FDA50923F09
:1036D00042F8923F71BA963F144E973FDEF4983FFE
:1036E000ACE3983FFA6A993FE67D993F96409B3F4D
:1036F000619B9A3F8CE09B3F4E259D3F429E9E3FA3
:10370000CDFA9F3FDBC5A13F4697A33F915CA43F05
:10371000579BA63F8A1AA63FE0B8A73F3409AA3FA5
:10372000446AB13FFFBDB63FB3AEB33F74ACB13FE7
:08373000708FB53F798DB73FA2
:04000005000000C136
:00000001FF
